{"abi":[{"type":"constructor","inputs":[{"name":"initialOwner","type":"address","internalType":"address"},{"name":"usdcAddress","type":"address","internalType":"address"}],"stateMutability":"nonpayable"},{"type":"receive","stateMutability":"payable"},{"type":"function","name":"MAX_INTENTION_LEN","inputs":[],"outputs":[{"name":"","type":"uint64","internalType":"uint64"}],"stateMutability":"view"},{"type":"function","name":"MAX_REF_IMAGE_LEN","inputs":[],"outputs":[{"name":"","type":"uint64","internalType":"uint64"}],"stateMutability":"view"},{"type":"function","name":"approveDelivery","inputs":[{"name":"commissionId","type":"uint256","internalType":"uint256"}],"outputs":[],"stateMutability":"nonpayable"},{"type":"function","name":"assignArtist","inputs":[{"name":"commissionId","type":"uint256","internalType":"uint256"},{"name":"artist","type":"address","internalType":"address"},{"name":"tokenId","type":"uint256","internalType":"uint256"}],"outputs":[],"stateMutability":"nonpayable"},{"type":"function","name":"cancelCommission","inputs":[{"name":"commissionId","type":"uint256","internalType":"uint256"}],"outputs":[],"stateMutability":"nonpayable"},{"type":"function","name":"commissions","inputs":[{"name":"","type":"uint256","internalType":"uint256"}],"outputs":[{"name":"buyer","type":"address","internalType":"address"},{"name":"intention","type":"string","internalType":"string"},{"name":"referenceImage","type":"string","internalType":"string"},{"name":"priceAvax","type":"uint256","internalType":"uint256"},{"name":"priceUsdc","type":"uint256","internalType":"uint256"},{"name":"avaxUsdcRate","type":"uint256","internalType":"uint256"},{"name":"currency","type":"uint8","internalType":"enum ShimejiCommission.Currency"},{"name":"status","type":"uint8","internalType":"enum ShimejiCommission.CommissionStatus"},{"name":"tokenId","type":"uint256","internalType":"uint256"},{"name":"artist","type":"address","internalType":"address"},{"name":"createdAt","type":"uint64","internalType":"uint64"}],"stateMutability":"view"},{"type":"function","name":"createCommission","inputs":[{"name":"intention","type":"string","internalType":"string"},{"name":"referenceImage","type":"string","internalType":"string"},{"name":"priceAvax","type":"uint256","internalType":"uint256"},{"name":"priceUsdc","type":"uint256","internalType":"uint256"},{"name":"avaxUsdcRate","type":"uint256","internalType":"uint256"},{"name":"currency","type":"uint8","internalType":"enum ShimejiCommission.Currency"}],"outputs":[{"name":"commissionId","type":"uint256","internalType":"uint256"}],"stateMutability":"payable"},{"type":"function","name":"getCommission","inputs":[{"name":"commissionId","type":"uint256","internalType":"uint256"}],"outputs":[{"name":"","type":"tuple","internalType":"struct ShimejiCommission.CommissionRequest","components":[{"name":"buyer","type":"address","internalType":"address"},{"name":"intention","type":"string","internalType":"string"},{"name":"referenceImage","type":"string","internalType":"string"},{"name":"priceAvax","type":"uint256","internalType":"uint256"},{"name":"priceUsdc","type":"uint256","internalType":"uint256"},{"name":"avaxUsdcRate","type":"uint256","internalType":"uint256"},{"name":"currency","type":"uint8","internalType":"enum ShimejiCommission.Currency"},{"name":"status","type":"uint8","internalType":"enum ShimejiCommission.CommissionStatus"},{"name":"tokenId","type":"uint256","internalType":"uint256"},{"name":"artist","type":"address","internalType":"address"},{"name":"createdAt","type":"uint64","internalType":"uint64"}]}],"stateMutability":"view"},{"type":"function","name":"markDelivered","inputs":[{"name":"commissionId","type":"uint256","internalType":"uint256"}],"outputs":[],"stateMutability":"nonpayable"},{"type":"function","name":"nextCommissionId","inputs":[],"outputs":[{"name":"","type":"uint256","internalType":"uint256"}],"stateMutability":"view"},{"type":"function","name":"owner","inputs":[],"outputs":[{"name":"","type":"address","internalType":"address"}],"stateMutability":"view"},{"type":"function","name":"renounceOwnership","inputs":[],"outputs":[],"stateMutability":"nonpayable"},{"type":"function","name":"totalCommissions","inputs":[],"outputs":[{"name":"","type":"uint256","internalType":"uint256"}],"stateMutability":"view"},{"type":"function","name":"transferOwnership","inputs":[{"name":"newOwner","type":"address","internalType":"address"}],"outputs":[],"stateMutability":"nonpayable"},{"type":"function","name":"usdc","inputs":[],"outputs":[{"name":"","type":"address","internalType":"contract IERC20"}],"stateMutability":"view"},{"type":"event","name":"OwnershipTransferred","inputs":[{"name":"previousOwner","type":"address","indexed":true,"internalType":"address"},{"name":"newOwner","type":"address","indexed":true,"internalType":"address"}],"anonymous":false},{"type":"error","name":"OwnableInvalidOwner","inputs":[{"name":"owner","type":"address","internalType":"address"}]},{"type":"error","name":"OwnableUnauthorizedAccount","inputs":[{"name":"account","type":"address","internalType":"address"}]},{"type":"error","name":"ReentrancyGuardReentrantCall","inputs":[]}],"bytecode":{"object":"0x60a0346100f157601f6113de38819003918201601f19168301916001600160401b038311848410176100f55780849260409485528339810103126100f157610052602061004b83610109565b9201610109565b6001600160a01b039091169081156100de575f80546001600160a01b031981168417825560405193916001600160a01b03909116907f8be0079c531659141344cd1fd0a4f28419497f9722a3daafe3b4186f6b6457e09080a3600180556001600160a01b03166080526112c0908161011e823960805181818161031c015281816108b20152610ab00152f35b631e4fbdf760e01b5f525f60045260245ffd5b5f80fd5b634e487b7160e01b5f52604160045260245ffd5b51906001600160a01b03821682036100f15756fe6080604052600436101561001a575b3615610018575f80fd5b005b5f3560e01c80631a19ae7814610e675780631c4079e114610e4b57806322b3a7c814610d565780632fdfa7ec14610cc35780633c8bccd914610adf5780633e413bee14610a9b57806341b4098514610a0b578063715018a614610a4457806379e581a114610a285780638792e30314610a0b5780638bc2ff7c146103e95780638da5cb5b146103c2578063c94b674b146101f9578063eb826a5f146101505763f2fde38b0361000e573461014c57602036600319011261014c576004356001600160a01b0381169081900361014c576100f1611264565b8015610139575f80546001600160a01b03198116831782556001600160a01b0316907f8be0079c531659141344cd1fd0a4f28419497f9722a3daafe3b4186f6b6457e09080a3005b631e4fbdf760e01b5f525f60045260245ffd5b5f80fd5b3461014c57602036600319011261014c576004355f52600360205260405f20600681019060ff825460081c1660058110156101e55760016101919114611166565b600801546001600160a01b031633036101b357805461ff001916610200179055005b60405162461bcd60e51b815260206004820152600a6024820152691b9bdd08185c9d1a5cdd60b21b6044820152606490fd5b634e487b7160e01b5f52602160045260245ffd5b3461014c57602036600319011261014c57610212611244565b6004355f90815260036020526040902080546001600160a01b03163303610391576006810160ff815460081c169060058210156101e557610257600260ff9314611166565b61030061ff0019825416178155541660028110156101e5576102dc575f80808093600360018060a01b03600883015416910154905af16102956111d3565b50156102a2575b60018055005b60405162461bcd60e51b8152602060048201526012602482015271185d985e081c185e5bdd5d0819985a5b195960721b6044820152606490fd5b600881015460049182015460405163a9059cbb60e01b81526001600160a01b0390921692820192909252602481019190915260208180604481015b03815f7f00000000000000000000000000000000000000000000000000000000000000006001600160a01b03165af1801561038657610357575b5061029c565b6103789060203d60201161037f575b6103708183611038565b81019061119f565b5080610351565b503d610366565b6040513d5f823e3d90fd5b60405162461bcd60e51b81526020600482015260096024820152683737ba10313abcb2b960b91b6044820152606490fd5b3461014c575f36600319011261014c575f546040516001600160a01b039091168152602090f35b60c036600319011261014c5760043567ffffffffffffffff811161014c57610415903690600401611138565b60243567ffffffffffffffff811161014c57610435903690600401611138565b604492919235606435926084359360a43596600288101561014c57610458611244565b821515806109ff575b156109c657610200851161098c5783151580610983575b8061097a575b1561094357876108845783340361084e575b600254965f19881461083a576104c16104d09260018a01600255604051956104b78761101b565b338752369161120e565b9560208501968752369161120e565b9460408301958652606083019384526080830191825260a083019081526104fb60c084019889611202565b60e08301915f83526101008401945f86526101208501975f895261014086019767ffffffffffffffff421689528a5f52600360205260405f209660018060a01b039060018060a01b03905116166bffffffffffffffffffffffff60a01b88541617875560018701905180519067ffffffffffffffff82116107685781906105828454610fe3565b601f81116107ea575b50602090601f8311600114610787575f9261077c575b50508160011b915f199060031b1c19161790555b518051600287019167ffffffffffffffff82116107685781906105d88454610fe3565b601f8111610718575b50602090601f83116001146106b5575f926106aa575b50508160011b915f199060031b1c19161790555b51600385015551600484015551600583015560068201965160028110156101e55760ff80198954169116178755519160058310156101e557865461ff001916600893841b61ff00161790965594516007860155915193909101805491516001600160e01b03199092166001600160a01b03949094169390931760a09190911b67ffffffffffffffff60a01b161790915560018055604051908152602090f35b015190508d806105f7565b5f8581528281209350601f198516905b81811061070057509084600195949392106106e8575b505050811b01905561060b565b01515f1960f88460031b161c191690558d80806106db565b929360206001819287860151815501950193016106c5565b909150835f5260205f20601f840160051c8101916020851061075e575b90601f859493920160051c01905b81811061075057506105e1565b5f8155849350600101610743565b9091508190610735565b634e487b7160e01b5f52604160045260245ffd5b015190508e806105a1565b5f8581528281209350601f198516905b8181106107d257509084600195949392106107ba575b505050811b0190556105b5565b01515f1960f88460031b161c191690558e80806107ad565b92936020600181928786015181550195019301610797565b909150835f5260205f20601f840160051c81019160208510610830575b90601f859493920160051c01905b818110610822575061058b565b5f8155849350600101610815565b9091508190610807565b634e487b7160e01b5f52601160045260245ffd5b60405162461bcd60e51b815260206004820152600e60248201526d0d2dcc6dee4e4cac6e840c2ecc2f60931b6044820152606490fd5b3461090c576040516323b872dd60e01b8152336004820152306024820152604481018390526020816064815f7f00000000000000000000000000000000000000000000000000000000000000006001600160a01b03165af18015610386576108ed575b50610490565b6109059060203d60201161037f576103708183611038565b50886108e7565b60405162461bcd60e51b815260206004820152600f60248201526e0eadccaf0e0cac6e8cac840c2ecc2f608b1b6044820152606490fd5b60405162461bcd60e51b815260206004820152600f60248201526e696e76616c69642070726963696e6760881b6044820152606490fd5b5085151561047e565b50811515610478565b60405162461bcd60e51b81526020600482015260126024820152717265666572656e636520746f6f206c6f6e6760701b6044820152606490fd5b60405162461bcd60e51b815260206004820152601160248201527034b73b30b634b21034b73a32b73a34b7b760791b6044820152606490fd5b506101f4831115610461565b3461014c575f36600319011261014c576020600254604051908152f35b3461014c575f36600319011261014c5760206040516102008152f35b3461014c575f36600319011261014c57610a5c611264565b5f80546001600160a01b0319811682556001600160a01b03167f8be0079c531659141344cd1fd0a4f28419497f9722a3daafe3b4186f6b6457e08280a3005b3461014c575f36600319011261014c576040517f00000000000000000000000000000000000000000000000000000000000000006001600160a01b03168152602090f35b3461014c57602036600319011261014c575f610140604051610b008161101b565b82815260606020820152606060408201528260608201528260808201528260a08201528260c08201528260e0820152826101008201528261012082015201526004355f52600360205260405f20604051610b598161101b565b81546001600160a01b03168152610b726001830161105a565b9160208201928352610b866002820161105a565b90604083019182526003810154916060840192835260048201549160808501928352600581015460a08601908152600682015460ff60c0880191610bcc82821684611202565b60081c169160e088019260058110156101e557835260078401549361010089019485526008015495610120890195600160a01b60019003881687526101408a019760a01c67ffffffffffffffff1688526040519a8b9a60208c52600160a01b6001900390511660208c01525160408b0161016090526101808b01610c4f916110fa565b90518a8203601f190160608c0152610c6791906110fa565b975160808a01525160a08901525160c08801525160e08701610c889161111e565b516101008601610c979161112b565b51610120850152516001600160a01b03166101408401525167ffffffffffffffff166101608301520390f35b3461014c57606036600319011261014c576024356001600160a01b038116810361014c57610cef611264565b6004355f52600360205260405f20906006820160ff815460081c1660058110156101e557610d1d9015611166565b805461ff0019166101001790556008820180546001600160a01b0319166001600160a01b03909216919091179055604435600790910155005b3461014c57602036600319011261014c576004355f526003602052602060405f2060018060a01b038154169067ffffffffffffffff610d976001830161105a565b610da36002840161105a565b92610e276003820154946004830154600584015490610df7600686015493610de960086007890154980154986101606040519e8f9e8f90815201526101608d01906110fa565b908b820360408d01526110fa565b9760608a0152608089015260a0880152610e1760c0880160ff831661111e565b60ff60e088019160081c1661112b565b6101008501526001600160a01b03811661012085015260a01c166101408301520390f35b3461014c575f36600319011261014c5760206040516101f48152f35b3461014c57602036600319011261014c57610e80611244565b6004355f52600360205260405f2060018060a01b0381541633148015610fd0575b15610f9a576006810160ff815460081c169060058210156101e557610ed28260ff9315908115610f8f575b50611166565b61040061ff0019825416178155541660028110156101e557610f53575f80808093600360018060a01b03825416910154905af1610f0d6111d3565b5015610f195760018055005b60405162461bcd60e51b8152602060048201526012602482015271185d985e081c99599d5b990819985a5b195960721b6044820152606490fd5b805460049182015460405163a9059cbb60e01b81526001600160a01b039092169282019290925260248101919091526020818060448101610317565b600191501485610ecc565b60405162461bcd60e51b815260206004820152600e60248201526d1b9bdd08185d5d1a1bdc9a5e995960921b6044820152606490fd5b505f546001600160a01b03163314610ea1565b90600182811c92168015611011575b6020831014610ffd57565b634e487b7160e01b5f52602260045260245ffd5b91607f1691610ff2565b610160810190811067ffffffffffffffff82111761076857604052565b90601f8019910116810190811067ffffffffffffffff82111761076857604052565b9060405191825f82549261106d84610fe3565b80845293600181169081156110d85750600114611094575b5061109292500383611038565b565b90505f9291925260205f20905f915b8183106110bc575050906020611092928201015f611085565b60209193508060019154838589010152019101909184926110a3565b90506020925061109294915060ff191682840152151560051b8201015f611085565b805180835260209291819084018484015e5f828201840152601f01601f1916010190565b9060028210156101e55752565b9060058210156101e55752565b9181601f8401121561014c5782359167ffffffffffffffff831161014c576020838186019501011161014c57565b1561116d57565b60405162461bcd60e51b815260206004820152600a6024820152696261642073746174757360b01b6044820152606490fd5b9081602091031261014c5751801515810361014c5790565b67ffffffffffffffff811161076857601f01601f191660200190565b3d156111fd573d906111e4826111b7565b916111f26040519384611038565b82523d5f602084013e565b606090565b60028210156101e55752565b92919261121a826111b7565b916112286040519384611038565b82948184528183011161014c578281602093845f960137010152565b600260015414611255576002600155565b633ee5aeb560e01b5f5260045ffd5b5f546001600160a01b0316330361127757565b63118cdaa760e01b5f523360045260245ffdfea26469706673582212205782df3d2db5ae5058ac5e5496b6cf9b4d69af2974208c523d45f8de05b3497f64736f6c634300081c0033","linkReferences":{}},"methodIdentifiers":{"MAX_INTENTION_LEN()":"1c4079e1","MAX_REF_IMAGE_LEN()":"79e581a1","approveDelivery(uint256)":"c94b674b","assignArtist(uint256,address,uint256)":"2fdfa7ec","cancelCommission(uint256)":"1a19ae78","commissions(uint256)":"22b3a7c8","createCommission(string,string,uint256,uint256,uint256,uint8)":"8bc2ff7c","getCommission(uint256)":"3c8bccd9","markDelivered(uint256)":"eb826a5f","nextCommissionId()":"41b40985","owner()":"8da5cb5b","renounceOwnership()":"715018a6","totalCommissions()":"8792e303","transferOwnership(address)":"f2fde38b","usdc()":"3e413bee"},"id":26}