{"abi":[{"type":"constructor","inputs":[{"name":"initialOwner","type":"address","internalType":"address"},{"name":"nftAddress","type":"address","internalType":"address"},{"name":"usdcAddress","type":"address","internalType":"address"}],"stateMutability":"nonpayable"},{"type":"receive","stateMutability":"payable"},{"type":"function","name":"COMMISSION_AUTO_RELEASE_AFTER_DELIVERY_SECS","inputs":[],"outputs":[{"name":"","type":"uint64","internalType":"uint64"}],"stateMutability":"view"},{"type":"function","name":"MAX_COMMISSION_INTENTION_LEN","inputs":[],"outputs":[{"name":"","type":"uint64","internalType":"uint64"}],"stateMutability":"view"},{"type":"function","name":"MAX_COMMISSION_REVISION_REQUESTS","inputs":[],"outputs":[{"name":"","type":"uint64","internalType":"uint64"}],"stateMutability":"view"},{"type":"function","name":"MAX_COMMISSION_TURNAROUND_DAYS","inputs":[],"outputs":[{"name":"","type":"uint64","internalType":"uint64"}],"stateMutability":"view"},{"type":"function","name":"MAX_REFERENCE_IMAGE_URL_LEN","inputs":[],"outputs":[{"name":"","type":"uint64","internalType":"uint64"}],"stateMutability":"view"},{"type":"function","name":"MAX_SWAP_INTENTION_LEN","inputs":[],"outputs":[{"name":"","type":"uint64","internalType":"uint64"}],"stateMutability":"view"},{"type":"function","name":"acceptSwapBid","inputs":[{"name":"listingId","type":"uint256","internalType":"uint256"},{"name":"bidId","type":"uint256","internalType":"uint256"}],"outputs":[],"stateMutability":"nonpayable"},{"type":"function","name":"approveCommissionDelivery","inputs":[{"name":"orderId","type":"uint256","internalType":"uint256"}],"outputs":[],"stateMutability":"nonpayable"},{"type":"function","name":"buyAvax","inputs":[{"name":"listingId","type":"uint256","internalType":"uint256"}],"outputs":[],"stateMutability":"payable"},{"type":"function","name":"buyCommissionAvax","inputs":[{"name":"listingId","type":"uint256","internalType":"uint256"},{"name":"intention","type":"string","internalType":"string"},{"name":"referenceImageUrl","type":"string","internalType":"string"}],"outputs":[],"stateMutability":"payable"},{"type":"function","name":"buyCommissionUsdc","inputs":[{"name":"listingId","type":"uint256","internalType":"uint256"},{"name":"intention","type":"string","internalType":"string"},{"name":"referenceImageUrl","type":"string","internalType":"string"}],"outputs":[],"stateMutability":"nonpayable"},{"type":"function","name":"buyUsdc","inputs":[{"name":"listingId","type":"uint256","internalType":"uint256"}],"outputs":[],"stateMutability":"nonpayable"},{"type":"function","name":"cancelListing","inputs":[{"name":"listingId","type":"uint256","internalType":"uint256"}],"outputs":[],"stateMutability":"nonpayable"},{"type":"function","name":"cancelSwapBid","inputs":[{"name":"bidId","type":"uint256","internalType":"uint256"}],"outputs":[],"stateMutability":"nonpayable"},{"type":"function","name":"cancelSwapListing","inputs":[{"name":"listingId","type":"uint256","internalType":"uint256"}],"outputs":[],"stateMutability":"nonpayable"},{"type":"function","name":"claimCommissionTimeout","inputs":[{"name":"orderId","type":"uint256","internalType":"uint256"}],"outputs":[],"stateMutability":"nonpayable"},{"type":"function","name":"commissionOrders","inputs":[{"name":"","type":"uint256","internalType":"uint256"}],"outputs":[{"name":"buyer","type":"address","internalType":"address"},{"name":"seller","type":"address","internalType":"address"},{"name":"listingId","type":"uint256","internalType":"uint256"},{"name":"tokenId","type":"uint256","internalType":"uint256"},{"name":"currency","type":"uint8","internalType":"enum ShimejiMarketplace.Currency"},{"name":"amountPaid","type":"uint256","internalType":"uint256"},{"name":"upfrontPaidToSeller","type":"uint256","internalType":"uint256"},{"name":"escrowRemaining","type":"uint256","internalType":"uint256"},{"name":"escrowProvider","type":"uint8","internalType":"enum ShimejiMarketplace.EscrowProvider"},{"name":"escrowHolder","type":"address","internalType":"address"},{"name":"commissionEtaDays","type":"uint64","internalType":"uint64"},{"name":"intention","type":"string","internalType":"string"},{"name":"referenceImageUrl","type":"string","internalType":"string"},{"name":"latestRevisionIntention","type":"string","internalType":"string"},{"name":"latestRevisionRefUrl","type":"string","internalType":"string"},{"name":"revisionRequestCount","type":"uint64","internalType":"uint64"},{"name":"maxRevisionRequests","type":"uint64","internalType":"uint64"},{"name":"metadataUriAtPurchase","type":"string","internalType":"string"},{"name":"lastDeliveredMetadataUri","type":"string","internalType":"string"},{"name":"status","type":"uint8","internalType":"enum ShimejiMarketplace.CommissionOrderStatus"},{"name":"createdAt","type":"uint64","internalType":"uint64"},{"name":"deliveredAt","type":"uint64","internalType":"uint64"},{"name":"resolvedAt","type":"uint64","internalType":"uint64"}],"stateMutability":"view"},{"type":"function","name":"configureInternalEscrow","inputs":[],"outputs":[],"stateMutability":"nonpayable"},{"type":"function","name":"configureTrustlessEscrow","inputs":[{"name":"avaxDestination","type":"address","internalType":"address payable"},{"name":"usdcDestination","type":"address","internalType":"address"}],"outputs":[],"stateMutability":"nonpayable"},{"type":"function","name":"createSwapListing","inputs":[{"name":"offeredTokenId","type":"uint256","internalType":"uint256"},{"name":"intention","type":"string","internalType":"string"}],"outputs":[{"name":"listingId","type":"uint256","internalType":"uint256"}],"stateMutability":"nonpayable"},{"type":"function","name":"escrowProvider","inputs":[],"outputs":[{"name":"","type":"uint8","internalType":"enum ShimejiMarketplace.EscrowProvider"}],"stateMutability":"view"},{"type":"function","name":"getCommissionOrder","inputs":[{"name":"orderId","type":"uint256","internalType":"uint256"}],"outputs":[{"name":"","type":"tuple","internalType":"struct ShimejiMarketplace.CommissionOrder","components":[{"name":"buyer","type":"address","internalType":"address"},{"name":"seller","type":"address","internalType":"address"},{"name":"listingId","type":"uint256","internalType":"uint256"},{"name":"tokenId","type":"uint256","internalType":"uint256"},{"name":"currency","type":"uint8","internalType":"enum ShimejiMarketplace.Currency"},{"name":"amountPaid","type":"uint256","internalType":"uint256"},{"name":"upfrontPaidToSeller","type":"uint256","internalType":"uint256"},{"name":"escrowRemaining","type":"uint256","internalType":"uint256"},{"name":"escrowProvider","type":"uint8","internalType":"enum ShimejiMarketplace.EscrowProvider"},{"name":"escrowHolder","type":"address","internalType":"address"},{"name":"commissionEtaDays","type":"uint64","internalType":"uint64"},{"name":"intention","type":"string","internalType":"string"},{"name":"referenceImageUrl","type":"string","internalType":"string"},{"name":"latestRevisionIntention","type":"string","internalType":"string"},{"name":"latestRevisionRefUrl","type":"string","internalType":"string"},{"name":"revisionRequestCount","type":"uint64","internalType":"uint64"},{"name":"maxRevisionRequests","type":"uint64","internalType":"uint64"},{"name":"metadataUriAtPurchase","type":"string","internalType":"string"},{"name":"lastDeliveredMetadataUri","type":"string","internalType":"string"},{"name":"status","type":"uint8","internalType":"enum ShimejiMarketplace.CommissionOrderStatus"},{"name":"createdAt","type":"uint64","internalType":"uint64"},{"name":"deliveredAt","type":"uint64","internalType":"uint64"},{"name":"resolvedAt","type":"uint64","internalType":"uint64"}]}],"stateMutability":"view"},{"type":"function","name":"getListing","inputs":[{"name":"listingId","type":"uint256","internalType":"uint256"}],"outputs":[{"name":"","type":"tuple","internalType":"struct ShimejiMarketplace.ListingInfo","components":[{"name":"seller","type":"address","internalType":"address"},{"name":"tokenId","type":"uint256","internalType":"uint256"},{"name":"price","type":"uint256","internalType":"uint256"},{"name":"currency","type":"uint8","internalType":"enum ShimejiMarketplace.Currency"},{"name":"commissionEtaDays","type":"uint64","internalType":"uint64"},{"name":"isCommissionEgg","type":"bool","internalType":"bool"},{"name":"active","type":"bool","internalType":"bool"}]}],"stateMutability":"view"},{"type":"function","name":"getSwapBid","inputs":[{"name":"bidId","type":"uint256","internalType":"uint256"}],"outputs":[{"name":"","type":"tuple","internalType":"struct ShimejiMarketplace.SwapBid","components":[{"name":"listingId","type":"uint256","internalType":"uint256"},{"name":"bidder","type":"address","internalType":"address"},{"name":"bidderTokenId","type":"uint256","internalType":"uint256"},{"name":"active","type":"bool","internalType":"bool"}]}],"stateMutability":"view"},{"type":"function","name":"getSwapListing","inputs":[{"name":"listingId","type":"uint256","internalType":"uint256"}],"outputs":[{"name":"","type":"tuple","internalType":"struct ShimejiMarketplace.SwapListing","components":[{"name":"creator","type":"address","internalType":"address"},{"name":"offeredTokenId","type":"uint256","internalType":"uint256"},{"name":"intention","type":"string","internalType":"string"},{"name":"active","type":"bool","internalType":"bool"}]}],"stateMutability":"view"},{"type":"function","name":"listCommissionEgg","inputs":[{"name":"tokenId","type":"uint256","internalType":"uint256"},{"name":"price","type":"uint256","internalType":"uint256"},{"name":"currency","type":"uint8","internalType":"enum ShimejiMarketplace.Currency"},{"name":"commissionEtaDays","type":"uint64","internalType":"uint64"}],"outputs":[{"name":"listingId","type":"uint256","internalType":"uint256"}],"stateMutability":"nonpayable"},{"type":"function","name":"listForSale","inputs":[{"name":"tokenId","type":"uint256","internalType":"uint256"},{"name":"price","type":"uint256","internalType":"uint256"},{"name":"currency","type":"uint8","internalType":"enum ShimejiMarketplace.Currency"}],"outputs":[{"name":"listingId","type":"uint256","internalType":"uint256"}],"stateMutability":"nonpayable"},{"type":"function","name":"listings","inputs":[{"name":"","type":"uint256","internalType":"uint256"}],"outputs":[{"name":"seller","type":"address","internalType":"address"},{"name":"tokenId","type":"uint256","internalType":"uint256"},{"name":"price","type":"uint256","internalType":"uint256"},{"name":"currency","type":"uint8","internalType":"enum ShimejiMarketplace.Currency"},{"name":"commissionEtaDays","type":"uint64","internalType":"uint64"},{"name":"isCommissionEgg","type":"bool","internalType":"bool"},{"name":"active","type":"bool","internalType":"bool"}],"stateMutability":"view"},{"type":"function","name":"markCommissionDelivered","inputs":[{"name":"orderId","type":"uint256","internalType":"uint256"}],"outputs":[],"stateMutability":"nonpayable"},{"type":"function","name":"nextCommissionOrderId","inputs":[],"outputs":[{"name":"","type":"uint256","internalType":"uint256"}],"stateMutability":"view"},{"type":"function","name":"nextListingId","inputs":[],"outputs":[{"name":"","type":"uint256","internalType":"uint256"}],"stateMutability":"view"},{"type":"function","name":"nextSwapBidId","inputs":[],"outputs":[{"name":"","type":"uint256","internalType":"uint256"}],"stateMutability":"view"},{"type":"function","name":"nextSwapListingId","inputs":[],"outputs":[{"name":"","type":"uint256","internalType":"uint256"}],"stateMutability":"view"},{"type":"function","name":"nft","inputs":[],"outputs":[{"name":"","type":"address","internalType":"contract ShimejiNFT"}],"stateMutability":"view"},{"type":"function","name":"owner","inputs":[],"outputs":[{"name":"","type":"address","internalType":"address"}],"stateMutability":"view"},{"type":"function","name":"placeSwapBid","inputs":[{"name":"listingId","type":"uint256","internalType":"uint256"},{"name":"bidderTokenId","type":"uint256","internalType":"uint256"}],"outputs":[{"name":"bidId","type":"uint256","internalType":"uint256"}],"stateMutability":"nonpayable"},{"type":"function","name":"refundCommissionOrder","inputs":[{"name":"orderId","type":"uint256","internalType":"uint256"}],"outputs":[],"stateMutability":"nonpayable"},{"type":"function","name":"renounceOwnership","inputs":[],"outputs":[],"stateMutability":"nonpayable"},{"type":"function","name":"requestCommissionRevision","inputs":[{"name":"orderId","type":"uint256","internalType":"uint256"},{"name":"intention","type":"string","internalType":"string"},{"name":"referenceImageUrl","type":"string","internalType":"string"}],"outputs":[],"stateMutability":"nonpayable"},{"type":"function","name":"sellerActiveCommissionEggListing","inputs":[{"name":"","type":"address","internalType":"address"}],"outputs":[{"name":"","type":"uint256","internalType":"uint256"}],"stateMutability":"view"},{"type":"function","name":"sellerOpenCommissionOrder","inputs":[{"name":"","type":"address","internalType":"address"}],"outputs":[{"name":"","type":"uint256","internalType":"uint256"}],"stateMutability":"view"},{"type":"function","name":"swapBids","inputs":[{"name":"","type":"uint256","internalType":"uint256"}],"outputs":[{"name":"listingId","type":"uint256","internalType":"uint256"},{"name":"bidder","type":"address","internalType":"address"},{"name":"bidderTokenId","type":"uint256","internalType":"uint256"},{"name":"active","type":"bool","internalType":"bool"}],"stateMutability":"view"},{"type":"function","name":"swapListings","inputs":[{"name":"","type":"uint256","internalType":"uint256"}],"outputs":[{"name":"creator","type":"address","internalType":"address"},{"name":"offeredTokenId","type":"uint256","internalType":"uint256"},{"name":"intention","type":"string","internalType":"string"},{"name":"active","type":"bool","internalType":"bool"}],"stateMutability":"view"},{"type":"function","name":"totalCommissionOrders","inputs":[],"outputs":[{"name":"","type":"uint256","internalType":"uint256"}],"stateMutability":"view"},{"type":"function","name":"totalListings","inputs":[],"outputs":[{"name":"","type":"uint256","internalType":"uint256"}],"stateMutability":"view"},{"type":"function","name":"totalSwapBids","inputs":[],"outputs":[{"name":"","type":"uint256","internalType":"uint256"}],"stateMutability":"view"},{"type":"function","name":"totalSwapListings","inputs":[],"outputs":[{"name":"","type":"uint256","internalType":"uint256"}],"stateMutability":"view"},{"type":"function","name":"transferOwnership","inputs":[{"name":"newOwner","type":"address","internalType":"address"}],"outputs":[],"stateMutability":"nonpayable"},{"type":"function","name":"trustlessEscrowAvax","inputs":[],"outputs":[{"name":"","type":"address","internalType":"address payable"}],"stateMutability":"view"},{"type":"function","name":"trustlessEscrowUsdc","inputs":[],"outputs":[{"name":"","type":"address","internalType":"address"}],"stateMutability":"view"},{"type":"function","name":"usdc","inputs":[],"outputs":[{"name":"","type":"address","internalType":"contract IERC20"}],"stateMutability":"view"},{"type":"event","name":"CommissionOrderCreated","inputs":[{"name":"orderId","type":"uint256","indexed":true,"internalType":"uint256"},{"name":"listingId","type":"uint256","indexed":true,"internalType":"uint256"},{"name":"buyer","type":"address","indexed":true,"internalType":"address"},{"name":"tokenId","type":"uint256","indexed":false,"internalType":"uint256"}],"anonymous":false},{"type":"event","name":"ListingCreated","inputs":[{"name":"listingId","type":"uint256","indexed":true,"internalType":"uint256"},{"name":"seller","type":"address","indexed":true,"internalType":"address"},{"name":"tokenId","type":"uint256","indexed":true,"internalType":"uint256"},{"name":"commissionEgg","type":"bool","indexed":false,"internalType":"bool"}],"anonymous":false},{"type":"event","name":"ListingPurchased","inputs":[{"name":"listingId","type":"uint256","indexed":true,"internalType":"uint256"},{"name":"buyer","type":"address","indexed":true,"internalType":"address"},{"name":"tokenId","type":"uint256","indexed":true,"internalType":"uint256"},{"name":"currency","type":"uint8","indexed":false,"internalType":"enum ShimejiMarketplace.Currency"},{"name":"commissionEgg","type":"bool","indexed":false,"internalType":"bool"}],"anonymous":false},{"type":"event","name":"OwnershipTransferred","inputs":[{"name":"previousOwner","type":"address","indexed":true,"internalType":"address"},{"name":"newOwner","type":"address","indexed":true,"internalType":"address"}],"anonymous":false},{"type":"event","name":"SwapBidPlaced","inputs":[{"name":"bidId","type":"uint256","indexed":true,"internalType":"uint256"},{"name":"listingId","type":"uint256","indexed":true,"internalType":"uint256"},{"name":"bidder","type":"address","indexed":true,"internalType":"address"},{"name":"bidderTokenId","type":"uint256","indexed":false,"internalType":"uint256"}],"anonymous":false},{"type":"event","name":"SwapListingCreated","inputs":[{"name":"listingId","type":"uint256","indexed":true,"internalType":"uint256"},{"name":"creator","type":"address","indexed":true,"internalType":"address"},{"name":"tokenId","type":"uint256","indexed":true,"internalType":"uint256"}],"anonymous":false},{"type":"error","name":"OwnableInvalidOwner","inputs":[{"name":"owner","type":"address","internalType":"address"}]},{"type":"error","name":"OwnableUnauthorizedAccount","inputs":[{"name":"account","type":"address","internalType":"address"}]},{"type":"error","name":"ReentrancyGuardReentrantCall","inputs":[]}],"bytecode":{"object":"0x60c0346101c357601f615d7c38819003918201601f19168301916001600160401b038311848410176101c7578084926060946040528339810103126101c357610047816101db565b61005f6040610058602085016101db565b93016101db565b916001600160a01b0382169182156101b0575f80546001600160a01b0319811685178255604051959185916001600160a01b0316907f8be0079c531659141344cd1fd0a4f28419497f9722a3daafe3b4186f6b6457e09080a360018055600280546001600160a01b039485166080529190931660a0526001600160a81b03191660089190911b610100600160a81b0316179055600380546001600160a01b031916919091179055615b8c90816101f082396080518181816103a101528181610e030152818161139c01528181611a2c01528181611f34015281816125eb0152818161294e01528181612c850152818161317d0152818161389101528181613af801528181613d2901528181613f8d01528181613ffd015281816141570152818161429001528181614450015261494b015260a0518181816118ce01528181612b30015281816141f50152615ac70152f35b631e4fbdf760e01b5f525f60045260245ffd5b5f80fd5b634e487b7160e01b5f52604160045260245ffd5b51906001600160a01b03821682036101c35756fe610100604052600436101561001b575b3615610019575f80fd5b005b5f5f3560e01c806277def914614fe9578063048d8d4214614fcd57806305f7644414614f245780630d6c720c14614eec578063107a274a14614e2e5780631730075814614e115780631a0928dc14614d8f5780631cde31de14614d735780632dd05c36146143155780632ff18b10146142f9578063305a67a814614224578063359881da14610ca55780633e413bee146141df57806343f18beb146140f6578063449215611461402c57806347ccca0214613fe75780634be77bfd14613f325780634f92c246146102815780635bc274d814613f155780635c0a7eba14613ef85780635ff6fbc214613e915780636a470db214613ca9578063715018a614613c4f578063845c62e014613c315780638c63e42d14613a4f5780638da5cb5b14613a285780638f1f32731461385157806397418e5f1461382b5780639b2ff8c8146135c1578063a0d7211e14612aa8578063aaccf1ec1461181a578063b0cc8d5f14612a7b578063b145cecd14612a42578063b2b33ab6146128ba578063b32e2eb214612575578063b5ce569a14612503578063b9bcf7f4146123e9578063bcfb3bbe14611838578063c78b616c1461181a578063c7bfd6d014610cc3578063cad4d52914610ca5578063da0db07214610b71578063dc0bfe8c14610b47578063de74e57b14610aba578063defe4539146106a9578063eec296b71461064f578063efd81d9614610343578063f1e2e37d14610325578063f2fde38b1461029f578063f9fc1f5e146102815763ff7feb8514610256575061000f565b3461027e578060031936011261027e576003546040516001600160a01b039091168152602090f35b80fd5b503461027e578060031936011261027e576020600754604051908152f35b503461027e57602036600319011261027e576102b96152f2565b6102c1615994565b6001600160a01b031680156103115781546001600160a01b03198116821783556001600160a01b03167f8be0079c531659141344cd1fd0a4f28419497f9722a3daafe3b4186f6b6457e08380a380f35b631e4fbdf760e01b82526004829052602482fd5b503461027e578060031936011261027e57602060405162093a808152f35b503461027e57604036600319011261027e57600435906024356001600160401b03811161064b57610378903690600401615270565b928315158061063f575b61038b906158ec565b6040516331a9108f60e11b8152600481018290527f00000000000000000000000000000000000000000000000000000000000000006001600160a01b031690602081602481855afa90811561063457906103f7918691610605575b506001600160a01b031633146157ec565b803b15610601578360405180926323b872dd60e01b8252818381610420883033600485016156cf565b03925af180156105f6579084916105dd575b50506005549161044183615824565b6005556104666040519161045483615384565b33835260208301968488523691615530565b60408281019182526001606084018181528688526009602052918720935184546001600160a01b0319166001600160a01b039190911617845596519683019690965551805190959060028301906001600160401b0381116105c9576020976104d8826104d2855461534c565b85615566565b8890601f831160011461056157826105289695936003959361050f938c92610556575b50508160011b915f199060031b1c19161790565b90555b51151591019060ff801983541691151516179055565b60405192827fa76e2a80e02611b96ed9d2edd8d0d87dc1c9e3b0e4ff1be2e2cc1c0ae21ede44339280a48152f35b015190505f806104fb565b8389528189209190601f1984168a5b8181106105b25750926001928592610528999896600398961061059b575b505050811b019055610512565b01515f1983881b60f8161c191690555f808061058e565b92938c600181928786015181550195019301610570565b634e487b7160e01b87526041600452602487fd5b816105e7916153d6565b6105f257825f610432565b8280fd5b6040513d86823e3d90fd5b8380fd5b610627915060203d60201161062d575b61061f81836153d6565b8101906157cd565b5f6103e6565b503d610615565b6040513d87823e3d90fd5b50610118841115610382565b5080fd5b503461027e57602036600319011261027e5760406080916004358152600a6020522080549060018060a01b036001820154169060ff6003600283015492015416916040519384526020840152604083015215156060820152f35b503461027e57602036600319011261027e57806102c06040516106cb816153ba565b8281528260208201528260408201528260608201528260808201528260a08201528260c08201528260e08201528261010082015282610120820152826101408201526060610160820152606061018082015260606101a082015260606101c0820152826101e082015282610200820152606061022082015260606102408201528261026082015282610280820152826102a082015201526004358152600b6020526040812090601060405192610780846153ba565b80546001600160a01b03908116855260018201541660208501526002810154604085015260038101546060850152600481015460ff166107bf81615308565b6080850152600581015460a0850152600681015460c0850152600781015460e08501526001600160401b03600882015460ff81166107fc81615308565b610100870152600881901c6001600160a01b031661012087015260a81c1661014085015261082c600982016153f7565b61016085015261083e600a82016153f7565b610180850152610850600b82016153f7565b6101a0850152610862600c82016153f7565b6101c08501526001600160401b03600d8201548181166101e087015260401c16610200850152610894600e82016153f7565b6102208501526108a6600f82016153f7565b610240850152015490600460ff83161015610aa657508060ff6001600160401b039216610260840152818160081c16610280840152818160481c166102a084015260881c166102c082015260405180916020825260018060a01b03815116602083015260018060a01b0360208201511660408301526040810151606083015260608101516080830152608081015161093d81615308565b60a083015260a081015160c083015260c081015160e083015260e081015161010083015261010081015161097081615308565b61012083015260018060a01b03610120820151166101408301526001600160401b03610140820151166101608301526001600160401b036102c0610a6a610a52610a1e610a066109ee6109d66101608901516102e06101808c01526103008b0190615312565b6101808901518a8203601f19016101a08c0152615312565b6101a0880151898203601f19016101c08b0152615312565b6101c0870151888203601f19016101e08a0152615312565b846101e0870151166102008801528461020087015116610220880152610220860151601f1988830301610240890152615312565b610240850151868203601f1901610260880152615312565b92610a7f610260820151610280870190615497565b82610280820151166102a0860152826102a082015116828601520151166102e08301520390f35b634e487b7160e01b81526021600452602490fd5b503461027e57602036600319011261027e57604060e091600435815260086020522060ff60018060a01b0382541691600181015460036002830154920154918383169160405195865260208601526040850152610b1681615308565b60608401526001600160401b038160081c166080840152818160481c16151560a084015260501c16151560c0820152f35b503461027e578060031936011261027e57602060ff6002541660405190610b6d81615308565b8152f35b503461027e57602036600319011261027e57610b8b6159ba565b6004358152600b6020526040812081546001600160a01b031633148015610c92575b15610c5c576010810160ff8154166004811015610c485790610bdc82610c1b9315908115610c3d575b506154dc565b610c0060078401858154915560018060a01b0385541660ff600487015416906159ff565b805460ff19166003178155426001600160401b0316906157a2565b6001908101546001600160a01b03168252600d60205260408220829055805580f35b60019150145f610bd6565b634e487b7160e01b84526021600452602484fd5b60405162461bcd60e51b815260206004820152600e60248201526d1b9bdd08185d5d1a1bdc9a5e995960921b6044820152606490fd5b5080546001600160a01b03163314610bad565b503461027e578060031936011261027e576020600654604051908152f35b50610cf1610ce9610cd33661529d565b95939491610ce29391936159ba565b3691615530565b933691615530565b818452600860205260408420926003840154610d1260ff8260501c16615657565b610d3160ff8216610d2288615308565b610d2b81615308565b15615894565b600285015434036117e15760ff60501b198116600386015560481c60ff16156117c257610d5e828261592c565b610d67846155cd565b343460011c3403116117ae578051610d8e903460011c9088906001600160a01b03166159ff565b6002543093610d9f60ff8316615308565b600160ff831614806117a1575b611770575b60075493610dbe85615824565b60075560018060a01b03845116926020850151966001600160401b03608087015116916040519863c87b56dd60e01b8a528060048b01528c8a60248160018060a01b037f0000000000000000000000000000000000000000000000000000000000000000165afa998a15611765578d809b61173a575b50509060ff9160405197610e47896153ba565b33895260208901528b60408901526060880152610e638d615308565b8c60808801523460a08801523460011c60c08801523460011c340360e0880152610e8e828216615308565b166101008601526001600160a01b031661012085015261014084015261016083015261018082015260405160209490610ec786826153d6565b8881526101a0830152604051610edd86826153d6565b8881526101c0830152876101e08301526003610200830152610220820152604051610f0885826153d6565b87815261024082015261026081018790526001600160401b0342166102808201526102a081018790526102c08101879052828752600b84526040808820825181546001600160a01b039182166001600160a01b03199182161783556020850151600184018054919093169116179055908201516002820155606082015160038201556080820151610fa590610f9c81615308565b6004830161563f565b60a0820151600582015560c0820151600682015560e0820151600782015560088101610fdf610100840151610fd981615308565b8261563f565b6101208301518154610100600160a81b03191660089190911b610100600160a81b0316178155610140830151815467ffffffffffffffff60a81b191660a89190911b67ffffffffffffffff60a81b161790556101608201518051906001600160401b0382116115725761106282611059600986015461534c565b60098601615566565b8690601f83116001146116cd5761108f92918b91836105565750508160011b915f199060031b1c19161790565b60098201555b6101808201518051906001600160401b038211611572576110c6826110bd600a86015461534c565b600a8601615566565b8690601f8311600114611660576110f392918b91836105565750508160011b915f199060031b1c19161790565b600a8201555b6101a08201518051906001600160401b0382116115725761112a82611121600b86015461534c565b600b8601615566565b8690601f83116001146115f35761115792918b91836105565750508160011b915f199060031b1c19161790565b600b8201555b6101c08201518051906001600160401b0382116115725761118e82611185600c86015461534c565b600c8601615566565b8690601f8311600114611586576111bb92918b91836105565750508160011b915f199060031b1c19161790565b600c8201555b6101e0820151600d820180546102008501516001600160801b03199091166001600160401b039384161760409190911b67ffffffffffffffff60401b1617905561022083015180519182116115725761122a82611221600e86015461534c565b600e8601615566565b8690601f83116001146115055761125792918b91836105565750508160011b915f199060031b1c19161790565b600e8201555b600f81016102408301518051906001600160401b0382116114f157611286826104d2855461534c565b87908b601f841160011461148a5760109594936112b8939092836105565750508160011b915f199060031b1c19161790565b90555b01906102608101516004811015611476576102c083926112e66001600160401b039361133b966155b5565b61028081015184546102a083015167ffffffffffffffff60481b90861660481b1691851660081b68ffffffffffffffff001670ffffffffffffffffffffffffffffffff001990911617178455015116906157a2565b600182018083116114625760208593925f516020615b175f395f51905f529260018060a01b038251168a52600d875260408a205560018060a01b038151168952600c86528860408120550151936040519485523394a45b60018201805484907f00000000000000000000000000000000000000000000000000000000000000006001600160a01b0316803b156105f2576040516323b872dd60e01b815291839183918290849082906113f2903330600485016156cf565b03925af1801561145757611442575b5050600360ff915493015460481c16906040519161141e85615308565b848352151560208301525f516020615b375f395f51905f5260403393a46001805580f35b8161144c916153d6565b61060157835f611401565b6040513d84823e3d90fd5b634e487b7160e01b87526011600452602487fd5b634e487b7160e01b89526021600452602489fd5b50838c52888c209190601f1984168d5b8b8282106114db575050916001939185601098979694106114c3575b505050811b0190556112bb565b01515f1960f88460031b161c191690555f80806114b6565b600185968293968601518155019501930161149a565b634e487b7160e01b8b52604160045260248bfd5b9190600e84018b52878b20908b935b89601f198516861061155957506001945083601f19811610611541575b505050811b01600e82015561125d565b01515f1960f88460031b161c191690555f8080611531565b8282015184559485019460019093019290910190611514565b634e487b7160e01b8a52604160045260248afd5b9190600c84018b52878b20908b935b89601f19851686106115da57506001945083601f198116106115c2575b505050811b01600c8201556111c1565b01515f1960f88460031b161c191690555f80806115b2565b8282015184559485019460019093019290910190611595565b9190600b84018b52878b20908b935b89601f198516861061164757506001945083601f1981161061162f575b505050811b01600b82015561115d565b01515f1960f88460031b161c191690555f808061161f565b8282015184559485019460019093019290910190611602565b9190600a84018b52878b20908b935b89601f19851686106116b457506001945083601f1981161061169c575b505050811b01600a8201556110f9565b01515f1960f88460031b161c191690555f808061168c565b828201518455948501946001909301929091019061166f565b9190600984018b52878b20908b935b89601f198516861061172157506001945083601f19811610611709575b505050811b016009820155611095565b01515f1960f88460031b161c191690555f80806116f9565b82820151845594850194600190930192909101906116dc565b60ff93929b509061175c913d8091833e61175481836153d6565b810190615832565b9990918d610e34565b6040513d8f823e3d90fd5b935061177b87615308565b600881901c6001600160a01b03169361179c34600181901c900389876159ff565b610db1565b503460011c341415610dac565b634e487b7160e01b86526011600452602486fd5b505081546117dc90349085906001600160a01b03166159ff565b611392565b60405162461bcd60e51b81526020600482015260116024820152701a5b98dbdc9c9958dd081c185e5b595b9d607a1b6044820152606490fd5b503461027e578060031936011261027e576020600454604051908152f35b503461027e57602036600319011261027e576118526159ba565b60043581526008602052611868604082206155cd565b61187760c08201511515615657565b60a08101516123af57806118a560016060604094015161189681615308565b61189f81615308565b14615894565b016118c960208251604051809381926323b872dd60e01b83523033600485016156cf565b0381867f00000000000000000000000000000000000000000000000000000000000000006001600160a01b03165af180156123a457612377575b5051602060405161191482826153d6565b8381526040519061192583836153d6565b848252849060043586526008845260408620926003840195865461194e60ff8260501c16615657565b611960600160ff831661189f81615308565b6002860154820361233e5760ff60501b198116885560481c60ff161561231e5761198a828461592c565b611993856155cd565b91818060011c81031161230a5782516119ba90600184811c916001600160a01b03166159ff565b309360ff60025416926119cc84615308565b60018414806122fd575b6122d6575b600754956119e887615824565b60075560018060a01b03865116948a870151926001600160401b03608089015116936040519763c87b56dd60e01b89528160048a01528b8960248160018060a01b037f0000000000000000000000000000000000000000000000000000000000000000165afa9889156122cb57908e9998979695949392918d996122ae575b5060405199611a758b6153ba565b338b528a015260043560408a01526060890152600160808901528060a08901528060011c60c08901528060011c900360e0880152611ab281615308565b6101008701526001600160a01b0316610120860152610140850152610160840152610180830152604051611ae688826153d6565b8581526101a0830152604051611afc88826153d6565b8581526101c0830152846101e08301526003610200830152610220820152604051611b2787826153d6565b84815261024082015261026081018490526001600160401b0342166102808201526102a081018490526102c08101849052828452600b86526040808520825181546001600160a01b039182166001600160a01b031991821617835589850151600184018054919093169116179055908201516002820155606082015160038201556080820151611bba90610f9c81615308565b60a0820151600582015560c0820151600682015560e0820151600782015560088101611bee610100840151610fd981615308565b6101208301518154610100600160a81b03191660089190911b610100600160a81b0316178155610140830151815467ffffffffffffffff60a81b191660a89190911b67ffffffffffffffff60a81b161790556101608201518051906001600160401b0382116105c957611c6882611059600986015461534c565b8890601f831160011461224157611c9592918891836105565750508160011b915f199060031b1c19161790565b60098201555b6101808201518051906001600160401b0382116105c957611cc3826110bd600a86015461534c565b8890601f83116001146121d457611cf092918891836105565750508160011b915f199060031b1c19161790565b600a8201555b6101a08201518051906001600160401b0382116105c957611d1e82611121600b86015461534c565b8890601f831160011461216757611d4b92918891836105565750508160011b915f199060031b1c19161790565b600b8201555b6101c08201518051906001600160401b0382116105c957611d7982611185600c86015461534c565b8890601f83116001146120fa57611da692918891836105565750508160011b915f199060031b1c19161790565b600c8201555b6101e0820151600d820180546102008501516001600160801b03199091166001600160401b039384161760409190911b67ffffffffffffffff60401b1617905561022083015180519182116105c957611e0c82611221600e86015461534c565b8890601f831160011461208d57611e3992918891836105565750508160011b915f199060031b1c19161790565b600e8201555b6102408201518051906001600160401b0382116105c957611e7082611e67600f86015461534c565b600f8601615566565b8890601f831160011461201f579180611ea192601095948a926105565750508160011b915f199060031b1c19161790565b600f8201555b0190610260810151600481101561200b576102c083926112e66001600160401b0393611ed2966155b5565b60018201808311611ff75781516001600160a01b039081168552600d87526040808620929092558251168452600c86528084208490559085015190519081523391600435915f516020615b175f395f51905f52908790a45b6001808060a01b037f0000000000000000000000000000000000000000000000000000000000000000169201918254813b156105f257611f85839283926040519485809481936323b872dd60e01b83523330600485016156cf565b03925af1801561145757611fe0575b5050549154604051919060481c60ff166001835215159082015233905f516020615b375f395f51905f52604060043592a46001805580f35b634e487b7160e01b5f52602160045260245ffd5b81611fea916153d6565b80851261027e5780611f94565b634e487b7160e01b84526011600452602484fd5b634e487b7160e01b86526021600452602486fd5b90600f8401885289882091885b8b601f198616821061207757505091839160019360109695601f1981161061205f575b505050811b01600f820155611ea7565b01515f1960f88460031b161c191690555f808061204f565b600184958293958501518155019401920161202c565b9190600e840188528988209088935b8b601f19851686106120e157506001945083601f198116106120c9575b505050811b01600e820155611e3f565b01515f1960f88460031b161c191690555f80806120b9565b828201518455948501946001909301929091019061209c565b9190600c840188528988209088935b8b601f198516861061214e57506001945083601f19811610612136575b505050811b01600c820155611dac565b01515f1960f88460031b161c191690555f8080612126565b8282015184559485019460019093019290910190612109565b9190600b840188528988209088935b8b601f19851686106121bb57506001945083601f198116106121a3575b505050811b01600b820155611d51565b01515f1960f88460031b161c191690555f8080612193565b8282015184559485019460019093019290910190612176565b9190600a840188528988209088935b8b601f198516861061222857506001945083601f19811610612210575b505050811b01600a820155611cf6565b01515f1960f88460031b161c191690555f8080612200565b82820151845594850194600190930192909101906121e3565b91906009840188528988209088935b8b601f198516861061229557506001945083601f1981161061227d575b505050811b016009820155611c9b565b01515f1960f88460031b161c191690555f808061226d565b8282015184559485019460019093019290910190612250565b6122c49199508d3d8091833e61175481836153d6565b975f611a67565b6040513d8e823e3d90fd5b6003548b97506001600160a01b031695506122f8600182811c830390886159ff565b6119db565b508060011c8114156119d6565b634e487b7160e01b89526011600452602489fd5b845461233993509091506001906001600160a01b03166159ff565b611f2a565b60405162461bcd60e51b81526004810188905260116024820152701a5b98dbdc9c9958dd081c185e5b595b9d607a1b6044820152606490fd5b6123989060203d60201161239d575b61239081836153d6565b8101906158d4565b611903565b503d612386565b6040513d85823e3d90fd5b60405162461bcd60e51b815260206004820152601260248201527175736520636f6d6d697373696f6e2062757960701b6044820152606490fd5b503461027e57602036600319011261027e576124036159ba565b6004358152600b60205260408120600181019061242a60018060a01b038354163314615696565b60108101805460ff8116600481101561200b5762093a809161245660016001600160401b0393146154dc565b60481c16016001600160401b0381116124ef576001600160401b031642106124be5761248461249f926159da565b805460ff19166002178155426001600160401b0316906157a2565b546001600160a01b03168152600d602052604081208190556001805580f35b60405162461bcd60e51b8152602060048201526009602482015268746f6f206561726c7960b81b6044820152606490fd5b634e487b7160e01b85526011600452602485fd5b503461027e57602036600319011261027e57604090600435815260096020522060018060a01b0381541660018201549161256960ff6003612546600285016153f7565b930154169160405194859485526020850152608060408501526080840190615312565b90151560608301520390f35b503461027e57608036600319011261027e576024356004356044356002811015610601576064356001600160401b03811680910361280b57801515806128ae575b1561287b57338552600d602052604085205461283e57831561280f576040516331a9108f60e11b8152600481018490528591907f00000000000000000000000000000000000000000000000000000000000000006001600160a01b031690602081602481855afa80156105f65761263e91859161060557506001600160a01b031633146157ec565b803b156105f2578260405180926323b872dd60e01b82528183816126678b3033600485016156cf565b03925af180156123a4576127ef575b509361278c92916127536001600160401b0360039761272f600454998a9661269d88615824565b600455604051906126ad8261539f565b338252602082018c815260408301918252606083019a6126cc81615308565b8b5260808301958652600160a0840181815260c085018281529b8b5260086020526040909a20935184546001600160a01b0319166001600160a01b0391909116178455905190830155516002820155975197019661272981615308565b8761563f565b51855468ffffffffffffffff001916911660081b68ffffffffffffffff0016178455565b51825491516affff0000000000000000001990921690151560481b69ff000000000000000000161790151560501b60ff60501b16179055565b60405160018152827fffc25595e8ec89e87cda6ef6b602b3e8816eaa45508e273b3c7f992c028dd94360203393a4600181018082116127db576040602093338152600c85522055604051908152f35b634e487b7160e01b83526011600452602483fd5b916127fe8180979395946153d6565b61280b579390915f612676565b8480fd5b60405162461bcd60e51b8152602060048201526007602482015266070726963653d360cc1b6044820152606490fd5b60405162461bcd60e51b815260206004820152601560248201527439b2b63632b9103430b99037b832b71037b93232b960591b6044820152606490fd5b60405162461bcd60e51b815260206004820152600b60248201526a696e76616c69642065746160a81b6044820152606490fd5b5061016d8111156125b6565b503461027e57806128ca36615336565b906128d36159ba565b808352600960205260408320918352600a60205260408320906003830180546128fe60ff821661572c565b61291260018060a01b038654163314615768565b61292c600385019360ff8554169081612a37575b506156f1565b60ff199081169091558154169055600181810154908301546001600160a01b037f00000000000000000000000000000000000000000000000000000000000000008116949216843b15612a33576040516323b872dd60e01b81529186918391829161299c919030600485016156cf565b038183885af1908115610634578591612a1e575b505060029060018060a01b03905416910154823b15612a19576129ed928492836040518096819582946323b872dd60e01b845230600485016156cf565b03925af1801561145757612a04575b506001805580f35b81612a0e916153d6565b61027e57805f6129fc565b505050fd5b81612a28916153d6565b612a1957835f6129b0565b8580fd5b90508554145f612926565b503461027e57602036600319011261027e576020906040906001600160a01b03612a6a6152f2565b168152600c83522054604051908152f35b503461027e578060031936011261027e5760025460405160089190911c6001600160a01b03168152602090f35b503461027e57612ab73661529d565b939290612ac26159ba565b8386526008602052612ad6604087206155cd565b91612ae660c08401511515615657565b60a08301511561358357604083612b0960016060612b2b97015161189681615308565b019060208251604051809681926323b872dd60e01b83523033600485016156cf565b03818b7f00000000000000000000000000000000000000000000000000000000000000006001600160a01b03165af191821561357857612b8094612b789361355b575b5051943691615530565b943691615530565b9284908386526008602052604086209260038401958654612ba660ff8260501c16615657565b612bb8600160ff831661189f81615308565b600286015483036117e15760ff60501b198116885560481c60ff161561353d57612be2818461592c565b612beb856155cd565b90828060011c81031161230a578151612c1290600185811c916001600160a01b03166159ff565b309060ff6002541694612c2486615308565b6001861480613530575b613509575b60075494612c4086615824565b60075560018060a01b03855116936020860151976001600160401b03608088015116926040519963c87b56dd60e01b8b528060048c01528b8b60248160018060a01b037f0000000000000000000000000000000000000000000000000000000000000000165afa9a8b156122cb578c9b6134ec575b5060405197612cc3896153ba565b3389526020890152604088018e90526060880152600160808801528060a08801528060011c60c08801528060011c900360e0870152612d0181615308565b6101008601526001600160a01b031661012085015261014084015261016083015261018082015260405160209490612d3986826153d6565b8681526101a0830152604051612d4f86826153d6565b8681526101c0830152856101e08301526003610200830152610220820152604051612d7a85826153d6565b85815261024082015261026081018590526001600160401b0342166102808201526102a081018590526102c08101859052828552600b84526040808620825181546001600160a01b039182166001600160a01b03199182161783556020850151600184018054919093169116179055908201516002820155606082015160038201556080820151612e0e90610f9c81615308565b60a0820151600582015560c0820151600682015560e0820151600782015560088101612e42610100840151610fd981615308565b6101208301518154610100600160a81b03191660089190911b610100600160a81b0316178155610140830151815467ffffffffffffffff60a81b191660a89190911b67ffffffffffffffff60a81b161790556101608201518051906001600160401b03821161332457612ebc82611059600986015461534c565b8690601f831160011461347f57612ee992918991836105565750508160011b915f199060031b1c19161790565b60098201555b6101808201518051906001600160401b03821161332457612f17826110bd600a86015461534c565b8690601f831160011461341257612f4492918991836105565750508160011b915f199060031b1c19161790565b600a8201555b6101a08201518051906001600160401b03821161332457612f7282611121600b86015461534c565b8690601f83116001146133a557612f9f92918991836105565750508160011b915f199060031b1c19161790565b600b8201555b6101c08201518051906001600160401b03821161332457612fcd82611185600c86015461534c565b8690601f831160011461333857612ffa92918991836105565750508160011b915f199060031b1c19161790565b600c8201555b6101e0820151600d820180546102008501516001600160801b03199091166001600160401b039384161760409190911b67ffffffffffffffff60401b1617905561022083015180519182116133245761306082611221600e86015461534c565b8690601f83116001146132b75761308d92918991836105565750508160011b915f199060031b1c19161790565b600e8201555b600f81016102408301518051906001600160401b0382116132a3576130bc826104d2855461534c565b8790601f831160011461323d5791806130ee9260109695948c926105565750508160011b915f199060031b1c19161790565b90555b01906102608101516004811015613229576102c083926112e66001600160401b039361311c966155b5565b600182018083116124ef5760208793925f516020615b175f395f51905f529260018060a01b038251168852600d8752604088205560018060a01b038151168752600c86528660408120550151936040519485523394a45b6001808060a01b037f0000000000000000000000000000000000000000000000000000000000000000169201918254813b156105f2576131ce839283926040519485809481936323b872dd60e01b83523330600485016156cf565b03925af1801561145757613212575b5050549154604051919060481c60ff1660018352151560208301525f516020615b375f395f51905f5260403393a46001805580f35b8161321c916153d6565b80851261027e57806131dd565b634e487b7160e01b87526021600452602487fd5b838a52888a209190601f1984168b5b8b82821061328d57505091600193918560109897969410613275575b505050811b0190556130f1565b01515f1960f88460031b161c191690555f8080613268565b600185968293968601518155019501930161324c565b634e487b7160e01b89526041600452602489fd5b9190600e840189528789209089935b89601f198516861061330b57506001945083601f198116106132f3575b505050811b01600e820155613093565b01515f1960f88460031b161c191690555f80806132e3565b82820151845594850194600190930192909101906132c6565b634e487b7160e01b88526041600452602488fd5b9190600c840189528789209089935b89601f198516861061338c57506001945083601f19811610613374575b505050811b01600c820155613000565b01515f1960f88460031b161c191690555f8080613364565b8282015184559485019460019093019290910190613347565b9190600b840189528789209089935b89601f19851686106133f957506001945083601f198116106133e1575b505050811b01600b820155612fa5565b01515f1960f88460031b161c191690555f80806133d1565b82820151845594850194600190930192909101906133b4565b9190600a840189528789209089935b89601f198516861061346657506001945083601f1981161061344e575b505050811b01600a820155612f4a565b01515f1960f88460031b161c191690555f808061343e565b8282015184559485019460019093019290910190613421565b91906009840189528789209089935b89601f19851686106134d357506001945083601f198116106134bb575b505050811b016009820155612eef565b01515f1960f88460031b161c191690555f80806134ab565b828201518455948501946001909301929091019061348e565b613502919b508c3d8091833e61175481836153d6565b995f612cb5565b6003548b97506001600160a01b0316925061352b600186811c870390856159ff565b612c33565b508460011c851415612c2e565b50835461355692506001906001600160a01b03166159ff565b613173565b6135739060203d60201161239d5761239081836153d6565b612b6e565b6040513d8a823e3d90fd5b60405162461bcd60e51b81526020600482015260166024820152753634b9ba34b733903737ba1031b7b6b6b4b9b9b4b7b760511b6044820152606490fd5b503461027e57602036600319011261027e576004358152600b6020526040902080600160a01b60019003815416600160a01b6001900360018301541660a052600282015460e0526003820154600483015460ff1660058401546006850154600786015460088701549060098801613637906153f7565b92613644600a8a016153f7565b94613651600b8b016153f7565b9661365e600c8c016153f7565b98600d8c01549a600e8d01613672906153f7565b9c600f0161367f906153f7565b9d6010015460805260405160c05260c0515260a05160c0516020015260e05160c0516040015260c051606001526136b581615308565b60c0516080015260c05160a0015260c05160c0015260c05160e0015260ff81166136de90615308565b60ff811660c0516101000152600160a01b600190038160081c1660c051610120015260a81c6001600160401b031660c051610140015260c051610160016102e0905260c0516102e00161373091615312565b60c051810360c051610180015261374691615312565b60c051810360c0516101a0015261375c91615312565b60c051810360c0516101c0015261377291615312565b906001600160401b03811660c0516101e0015260401c6001600160401b031660c051610200015260c051810360c05161022001526137af91615312565b60c051810360c05161024001526137c591615312565b60c0516102600160805160ff16906137dc91615497565b60805160081c6001600160401b031660c051610280015260805160481c6001600160401b031660c0516102a0015260805160881c6001600160401b031660c0516102c0015260c051900360c051f35b503461027e578060031936011261027e57613844615994565b60ff196002541660025580f35b503461027e57606036600319011261027e57602435600435604435600281101561060157821561280f576040516331a9108f60e11b8152600481018390527f00000000000000000000000000000000000000000000000000000000000000006001600160a01b031690602081602481855afa8015613a1d576138e491879161060557506001600160a01b031633146157ec565b803b1561280b578460405180926323b872dd60e01b825281838161390d893033600485016156cf565b03925af1801561063457613a08575b50926139d4602094600454809561393282615824565b6004556127536001600160401b036040519261394d8461539f565b33845261272f60038c8601958b875260408101938452606081019861397181615308565b895260808101938b855260a08201978c895260c083019960018b528d528f6008905260408d209260018060a01b039060018060a01b03905116166001600160601b0360a01b84541617835551600183015551600282015501965161272981615308565b604051908152827fffc25595e8ec89e87cda6ef6b602b3e8816eaa45508e273b3c7f992c028dd943853393a4604051908152f35b613a138580926153d6565b610601575f61391c565b6040513d88823e3d90fd5b503461027e578060031936011261027e57546040516001600160a01b039091168152602090f35b503461027e57602036600319011261027e576004358152600b6020526040812090613a8760018060a01b036001840154163314615696565b6010820160ff8154166004811015613c1d5790613aa7613ad692156154dc565b805470ffffffffffffffff0000000000000000ff19164260481b67ffffffffffffffff60481b16176001179055565b600382015460405163c87b56dd60e01b815260048101919091529181836024817f00000000000000000000000000000000000000000000000000000000000000006001600160a01b03165afa928315611457578293613bfe575b50600f0182516001600160401b038111613bea57613b5881613b52845461534c565b84615566565b6020601f8211600114613b8c5781908495613b879495926105565750508160011b915f199060031b1c19161790565b905580f35b82845280842090601f198316855b818110613bd257509583600195969710613bba575b505050811b01905580f35b01515f1960f88460031b161c191690555f8080613baf565b9192602060018192868b015181550194019201613b9a565b634e487b7160e01b83526041600452602483fd5b600f919350613c16903d8085833e61175481836153d6565b9290613b30565b634e487b7160e01b83526021600452602483fd5b503461027e578060031936011261027e576020600554604051908152f35b503461027e578060031936011261027e57613c68615994565b80546001600160a01b03198116825581906001600160a01b03167f8be0079c531659141344cd1fd0a4f28419497f9722a3daafe3b4186f6b6457e08280a380f35b503461027e57613cb836615336565b81839293526009602052613d1360606040842060ff600360405192613cdc84615384565b80546001600160a01b0316845260018101546020850152613cff600282016153f7565b60408501520154161515918291015261572c565b6040516331a9108f60e11b8152600481018290527f00000000000000000000000000000000000000000000000000000000000000006001600160a01b031690602081602481855afa9081156105f65790613d7e91859161060557506001600160a01b031633146157ec565b803b156105f2578260405180926323b872dd60e01b8252818381613da7883033600485016156cf565b03925af180156123a457613e7c575b50602092613e4860065493613dca85615824565b600655600360405191613ddc83615384565b848352878301338152604084019087825260406060860193600185528a8152600a8c52209451855560018060a01b03905116600185019060018060a01b03166001600160601b0360a01b82541617905551600284015551151591019060ff801983541691151516179055565b604051918252827f81b0a0c5ba6f2f449ba951c704c877de51398642b0e331ee2767b170931b59e3853394a4604051908152f35b613e878380926153d6565b61064b575f613db6565b503461027e57602036600319011261027e57613eab6159ba565b6004358152600b60205260408120613ecd60018060a01b0382541633146154a4565b6010810160ff8154166004811015610c485790613eef6001610c1b93146154dc565b612484836159da565b503461027e578060031936011261027e5760206040516102008152f35b503461027e578060031936011261027e5760206040516101f48152f35b503461027e57602036600319011261027e57613f4c6159ba565b600435815260096020528060408120600381018054613f6d60ff821661572c565b613f8160018060a01b038454163314615768565b60ff19169055600101547f00000000000000000000000000000000000000000000000000000000000000006001600160a01b0316803b15613fe3576040516323b872dd60e01b815291839183918290849082906129ed903330600485016156cf565b5050fd5b503461027e578060031936011261027e576040517f00000000000000000000000000000000000000000000000000000000000000006001600160a01b03168152602090f35b503461027e57602036600319011261027e57806040916060835161404f81615384565b82815282602082015281858201520152600435815260096020522060405161407681615384565b81546001600160a01b03168152600182015460208201908152916140e960ff60036140a3600285016153f7565b9360408601948552015416916060840192151583526040519485946020865260018060a01b039051166020860152516040850152516080606085015260a0840190615312565b9051151560808301520390f35b503461027e57602036600319011261027e576141106159ba565b6004358152600a60205260408120600381019081549161413260ff84166156f1565b60018201546001600160a01b031633036141ad5760ff199092169091556002015481907f00000000000000000000000000000000000000000000000000000000000000006001600160a01b0316803b15613fe3576040516323b872dd60e01b815291839183918290849082906129ed903330600485016156cf565b60405162461bcd60e51b815260206004820152600a6024820152693737ba103134b23232b960b11b6044820152606490fd5b503461027e578060031936011261027e576040517f00000000000000000000000000000000000000000000000000000000000000006001600160a01b03168152602090f35b503461027e57602036600319011261027e5761423e6159ba565b60043581526008602052806040812060ff60038201805490614264838360501c16615657565b61427860018060a01b038554163314615696565b8260501b198216905560481c166142e6575b600101547f00000000000000000000000000000000000000000000000000000000000000006001600160a01b0316803b15613fe3576040516323b872dd60e01b815291839183918290849082906129ed903330600485016156cf565b338252600c60205281604081205561428a565b503461027e578060031936011261027e57602060405160038152f35b506020366003190112614a105761432a6159ba565b604051602061433981836153d6565b5f82526040519161434a82846153d6565b5f83526004355f526008825260405f20906003820193845461437160ff8260501c16615657565b61438160ff8216610d2b81615308565b60028401543403614d3a5760ff60501b198116865560481c60ff1615614d1b576143ab818361592c565b6143b4836155cd565b90343460011c340311614a145781516143dc903460011c905f906001600160a01b03166159ff565b30600254916143ed60ff8416615308565b600160ff84161480614d0e575b614ce7575b6007549461440c86615824565b60075560018060a01b038551169388860151936001600160401b03608088015116916040519563c87b56dd60e01b87528060048801525f8760248160018060a01b037f0000000000000000000000000000000000000000000000000000000000000000165afa968715614a05575f97614ccb575b506040519761448e896153ba565b3389528c8901526004356040890152606088015260ff905f60808901523460a08901523460011c60c08901523460011c340360e08901526144d0828216615308565b166101008701526001600160a01b031661012086015261014085015261016084015261018083015260405161450587826153d6565b5f81526101a083015260405161451b87826153d6565b5f81526101c08301525f6101e0830152600361020083015261022082015260405161454686826153d6565b5f80825261024083019190915261026082018190526001600160401b0342166102808301526102a082018190526102c08201819052838152600b8652604090819020825181546001600160a01b039182166001600160a01b0319918216178355888501516001840180549190931691161790559082015160028201556060820151600382015560808201516145de90610f9c81615308565b60a0820151600582015560c0820151600682015560e0820151600782015560088101614612610100840151610fd981615308565b6101208301518154610100600160a81b03191660089190911b610100600160a81b0316178155610140830151815467ffffffffffffffff60a81b191660a89190911b67ffffffffffffffff60a81b161790556101608201518051906001600160401b038211614a965761468c82611059600986015461534c565b8790601f8311600114614c5e576146b992915f91836105565750508160011b915f199060031b1c19161790565b60098201555b6101808201518051906001600160401b038211614a96576146e7826110bd600a86015461534c565b8790601f8311600114614bf15761471492915f91836105565750508160011b915f199060031b1c19161790565b600a8201555b6101a08201518051906001600160401b038211614a965761474282611121600b86015461534c565b8790601f8311600114614b845761476f92915f91836105565750508160011b915f199060031b1c19161790565b600b8201555b6101c08201518051906001600160401b038211614a965761479d82611185600c86015461534c565b8790601f8311600114614b17576147ca92915f91836105565750508160011b915f199060031b1c19161790565b600c8201555b6101e0820151600d820180546102008501516001600160801b03199091166001600160401b039384161760409190911b67ffffffffffffffff60401b161790556102208301518051918211614a965761483082611221600e86015461534c565b8790601f8311600114614aaa5761485d92915f91836105565750508160011b915f199060031b1c19161790565b600e8201555b6102408201518051906001600160401b038211614a965761488b82611e67600f86015461534c565b8790601f8311600114614a285791806148bc92601095945f926105565750508160011b915f199060031b1c19161790565b600f8201555b01610260820151916004831015611fcc576102c06001600160401b03916112e66148ec95856155b5565b6001820190818311614a1457849160018060a01b038251165f52600d835260405f205560018060a01b038151165f52600c82525f6040812055015160405190815233915f516020615b175f395f51905f528560043593a45b60010180547f00000000000000000000000000000000000000000000000000000000000000006001600160a01b0316803b15614a10576040516323b872dd60e01b8152915f9183918290849082906149a1903330600485016156cf565b03925af18015614a05576149ef575b50549154604051919060481c60ff166149c885615308565b84835215159082015233905f516020615b375f395f51905f52604060043592a46001805580f35b6149fc9194505f906153d6565b5f9260ff6149b0565b6040513d5f823e3d90fd5b5f80fd5b634e487b7160e01b5f52601160045260245ffd5b90600f84015f52885f20915f5b8a601f1986168210614a8057505091839160019360109695601f19811610614a68575b505050811b01600f8201556148c2565b01515f1960f88460031b161c191690555f8080614a58565b6001849582939585015181550194019201614a35565b634e487b7160e01b5f52604160045260245ffd5b9190600e84015f52885f20905f935b8a601f1985168610614afe57506001945083601f19811610614ae6575b505050811b01600e820155614863565b01515f1960f88460031b161c191690555f8080614ad6565b8282015184559485019460019093019290910190614ab9565b9190600c84015f52885f20905f935b8a601f1985168610614b6b57506001945083601f19811610614b53575b505050811b01600c8201556147d0565b01515f1960f88460031b161c191690555f8080614b43565b8282015184559485019460019093019290910190614b26565b9190600b84015f52885f20905f935b8a601f1985168610614bd857506001945083601f19811610614bc0575b505050811b01600b820155614775565b01515f1960f88460031b161c191690555f8080614bb0565b8282015184559485019460019093019290910190614b93565b9190600a84015f52885f20905f935b8a601f1985168610614c4557506001945083601f19811610614c2d575b505050811b01600a82015561471a565b01515f1960f88460031b161c191690555f8080614c1d565b8282015184559485019460019093019290910190614c00565b9190600984015f52885f20905f935b8a601f1985168610614cb257506001945083601f19811610614c9a575b505050811b0160098201556146bf565b01515f1960f88460031b161c191690555f8080614c8a565b8282015184559485019460019093019290910190614c6d565b614ce09197503d805f833e61175481836153d6565b955f614480565b6001600160a01b03600884901c169150614d0934600181901c90035f846159ff565b6143ff565b503460011c3414156143fa565b50508054614d359034905f906001600160a01b03166159ff565b614944565b60405162461bcd60e51b81526004810186905260116024820152701a5b98dbdc9c9958dd081c185e5b595b9d607a1b6044820152606490fd5b34614a10575f366003190112614a105760206040516101188152f35b34614a10576040366003190112614a10576004356001600160a01b0381168103614a10576024356001600160a01b03811690819003614a1057600191614dd3615994565b600254916001600160601b0360a01b60035416176003556101008360a81b039060081b16906affffffffffffffffffffff60a81b1617176002555f80f35b34614a10575f366003190112614a10576020600554604051908152f35b34614a10576020366003190112614a10575f60c0604051614e4e8161539f565b8281528260208201528260408201528260608201528260808201528260a082015201526004355f52600860205260e0614e8960405f206155cd565b60c06040519160018060a01b03815116835260208101516020840152604081015160408401526060810151614ebd81615308565b60608401526001600160401b03608082015116608084015260a0810151151560a08401520151151560c0820152f35b34614a10576020366003190112614a10576001600160a01b03614f0d6152f2565b165f52600d602052602060405f2054604051908152f35b34614a10576020366003190112614a10575f6060604051614f4481615384565b82815282602082015282604082015201526004355f52600a602052608060405f20604051614f7181615384565b81549182825260018060a01b0360018201541660208301908152606060ff6003600285015494604087019586520154169301921515835260405193845260018060a01b0390511660208401525160408301525115156060820152f35b34614a10575f366003190112614a1057602060405161016d8152f35b34614a1057614ff73661529d565b90935f52600b60205260405f2061501860018060a01b0382541633146154a4565b601081019360ff8554166004811015611fcc57600161503791146154dc565b600d82019384546001600160401b03808260401c169116101561523c57615073615062368385615530565b61506d36878b615530565b9061592c565b600b8301916001600160401b038211614a9657615094826104d2855461534c565b5f90601f83116001146151d45791806150c692600c9695945f926151c95750508160011b915f199060031b1c19161790565b90555b01906001600160401b038111614a96576150e781613b52845461534c565b5f601f8211600114615166578190615116939495965f9261515b5750508160011b915f199060031b1c19161790565b90555b60016001600160401b03825416016001600160401b038111614a1457815467ffffffffffffffff19166001600160401b0391909116179055805460ff19169055005b0135905086806104fb565b601f19821695835f5260205f20915f5b8881106151b157508360019596979810615198575b505050811b019055615119565b01355f19600384901b60f8161c1916905585808061518b565b90926020600181928686013581550194019101615176565b013590508a806104fb565b601f19831691845f5260205f20925f5b8181106152245750916001939185600c989796941061520b575b505050811b0190556150c9565b01355f19600384901b60f8161c191690558980806151fe565b919360206001819287870135815501950192016151e4565b60405162461bcd60e51b815260206004820152600c60248201526b07265766973696f6e206361760a41b6044820152606490fd5b9181601f84011215614a10578235916001600160401b038311614a105760208381860195010111614a1057565b906060600319830112614a1057600435916024356001600160401b038111614a1057816152cc91600401615270565b92909291604435906001600160401b038211614a10576152ee91600401615270565b9091565b600435906001600160a01b0382168203614a1057565b60021115611fcc57565b805180835260209291819084018484015e5f828201840152601f01601f1916010190565b6040906003190112614a10576004359060243590565b90600182811c9216801561537a575b602083101461536657565b634e487b7160e01b5f52602260045260245ffd5b91607f169161535b565b608081019081106001600160401b03821117614a9657604052565b60e081019081106001600160401b03821117614a9657604052565b6102e081019081106001600160401b03821117614a9657604052565b90601f801991011681019081106001600160401b03821117614a9657604052565b9060405191825f82549261540a8461534c565b80845293600181169081156154755750600114615431575b5061542f925003836153d6565b565b90505f9291925260205f20905f915b81831061545957505090602061542f928201015f615422565b6020919350806001915483858901015201910190918492615440565b90506020925061542f94915060ff191682840152151560051b8201015f615422565b906004821015611fcc5752565b156154ab57565b60405162461bcd60e51b81526020600482015260096024820152683737ba10313abcb2b960b91b6044820152606490fd5b156154e357565b60405162461bcd60e51b815260206004820152600a6024820152696261642073746174757360b01b6044820152606490fd5b6001600160401b038111614a9657601f01601f191660200190565b92919261553c82615515565b9161554a60405193846153d6565b829481845281830111614a10578281602093845f960137010152565b601f821161557357505050565b5f5260205f20906020601f840160051c830193106155ab575b601f0160051c01905b8181106155a0575050565b5f8155600101615595565b909150819061558c565b906004811015611fcc5760ff80198354169116179055565b906040516155da8161539f565b60c060ff6003839560018060a01b0381541685526001810154602086015260028101546040860152015481811661561081615308565b60608501526001600160401b038160081c166080850152818160481c16151560a085015260501c161515910152565b9061564981615308565b60ff80198354169116179055565b1561565e57565b60405162461bcd60e51b815260206004820152601060248201526f6c697374696e6720696e61637469766560801b6044820152606490fd5b1561569d57565b60405162461bcd60e51b815260206004820152600a6024820152693737ba1039b2b63632b960b11b6044820152606490fd5b6001600160a01b03918216815291166020820152604081019190915260600190565b156156f857565b60405162461bcd60e51b815260206004820152600c60248201526b62696420696e61637469766560a01b6044820152606490fd5b1561573357565b60405162461bcd60e51b815260206004820152600d60248201526c7377617020696e61637469766560981b6044820152606490fd5b1561576f57565b60405162461bcd60e51b815260206004820152600b60248201526a3737ba1031b932b0ba37b960a91b6044820152606490fd5b805467ffffffffffffffff60881b191660889290921b67ffffffffffffffff60881b16919091179055565b90816020910312614a1057516001600160a01b0381168103614a105790565b156157f357565b60405162461bcd60e51b81526020600482015260096024820152683737ba1037bbb732b960b91b6044820152606490fd5b5f198114614a145760010190565b602081830312614a10578051906001600160401b038211614a10570181601f82011215614a105780519061586582615515565b9261587360405194856153d6565b82845260208383010111614a1057815f9260208093018386015e8301015290565b1561589b57565b60405162461bcd60e51b81526020600482015260116024820152700c6eae4e4cadcc6f240dad2e6dac2e8c6d607b1b6044820152606490fd5b90816020910312614a1057518015158103614a105790565b156158f357565b60405162461bcd60e51b815260206004820152601160248201527034b73b30b634b21034b73a32b73a34b7b760791b6044820152606490fd5b9061594561020092518015159081615987575b506158ec565b511161594d57565b60405162461bcd60e51b81526020600482015260126024820152717265666572656e636520746f6f206c6f6e6760701b6044820152606490fd5b6101f4915011155f61593f565b5f546001600160a01b031633036159a757565b63118cdaa760e01b5f523360045260245ffd5b6002600154146159cb576002600155565b633ee5aeb560e01b5f5260045ffd5b61542f9060078101905f8254925560ff600460018060a01b0360018401541692015416905b908215615b1157615a0f81615308565b615a94575f918291829182916001600160a01b03165af13d15615a8f573d615a3681615515565b90615a4460405192836153d6565b81525f60203d92013e5b15615a5557565b60405162461bcd60e51b8152602060048201526012602482015271185d985e081c185e5bdd5d0819985a5b195960721b6044820152606490fd5b615a4e565b60405163a9059cbb60e01b81526001600160a01b0391821660048201526024810192909252602090829060449082905f907f0000000000000000000000000000000000000000000000000000000000000000165af18015614a0557615af65750565b615b0e9060203d60201161239d5761239081836153d6565b50565b50505056fe2f39b1bd9d7125a3984d01cbdf7dcd5fe3ab899cc2f8fc5c599e4b288806931d795241562669593f3efeaa5931378ce6a0d574e0e65f8f8ded49dd7200b378c8a2646970667358221220091ca908e47860130d724a05db23e216d2de93b5b9e9842dc1447d0a68491df064736f6c634300081c0033","linkReferences":{}},"methodIdentifiers":{"COMMISSION_AUTO_RELEASE_AFTER_DELIVERY_SECS()":"f1e2e37d","MAX_COMMISSION_INTENTION_LEN()":"5bc274d8","MAX_COMMISSION_REVISION_REQUESTS()":"2ff18b10","MAX_COMMISSION_TURNAROUND_DAYS()":"048d8d42","MAX_REFERENCE_IMAGE_URL_LEN()":"5c0a7eba","MAX_SWAP_INTENTION_LEN()":"1cde31de","acceptSwapBid(uint256,uint256)":"b2b33ab6","approveCommissionDelivery(uint256)":"5ff6fbc2","buyAvax(uint256)":"2dd05c36","buyCommissionAvax(uint256,string,string)":"c7bfd6d0","buyCommissionUsdc(uint256,string,string)":"a0d7211e","buyUsdc(uint256)":"bcfb3bbe","cancelListing(uint256)":"305a67a8","cancelSwapBid(uint256)":"43f18beb","cancelSwapListing(uint256)":"4be77bfd","claimCommissionTimeout(uint256)":"b9bcf7f4","commissionOrders(uint256)":"9b2ff8c8","configureInternalEscrow()":"97418e5f","configureTrustlessEscrow(address,address)":"1a0928dc","createSwapListing(uint256,string)":"efd81d96","escrowProvider()":"dc0bfe8c","getCommissionOrder(uint256)":"defe4539","getListing(uint256)":"107a274a","getSwapBid(uint256)":"05f76444","getSwapListing(uint256)":"44921561","listCommissionEgg(uint256,uint256,uint8,uint64)":"b32e2eb2","listForSale(uint256,uint256,uint8)":"8f1f3273","listings(uint256)":"de74e57b","markCommissionDelivered(uint256)":"8c63e42d","nextCommissionOrderId()":"4f92c246","nextListingId()":"aaccf1ec","nextSwapBidId()":"cad4d529","nextSwapListingId()":"845c62e0","nft()":"47ccca02","owner()":"8da5cb5b","placeSwapBid(uint256,uint256)":"6a470db2","refundCommissionOrder(uint256)":"da0db072","renounceOwnership()":"715018a6","requestCommissionRevision(uint256,string,string)":"0077def9","sellerActiveCommissionEggListing(address)":"b145cecd","sellerOpenCommissionOrder(address)":"0d6c720c","swapBids(uint256)":"eec296b7","swapListings(uint256)":"b5ce569a","totalCommissionOrders()":"f9fc1f5e","totalListings()":"c78b616c","totalSwapBids()":"359881da","totalSwapListings()":"17300758","transferOwnership(address)":"f2fde38b","trustlessEscrowAvax()":"b0cc8d5f","trustlessEscrowUsdc()":"ff7feb85","usdc()":"3e413bee"},"id":28}