{"abi":[{"type":"constructor","inputs":[{"name":"initialOwner","type":"address","internalType":"address"},{"name":"initialAnswer","type":"int256","internalType":"int256"}],"stateMutability":"nonpayable"},{"type":"function","name":"decimals","inputs":[],"outputs":[{"name":"","type":"uint8","internalType":"uint8"}],"stateMutability":"view"},{"type":"function","name":"latestAnswer","inputs":[],"outputs":[{"name":"","type":"int256","internalType":"int256"}],"stateMutability":"view"},{"type":"function","name":"latestRoundData","inputs":[],"outputs":[{"name":"","type":"uint80","internalType":"uint80"},{"name":"","type":"int256","internalType":"int256"},{"name":"","type":"uint256","internalType":"uint256"},{"name":"","type":"uint256","internalType":"uint256"},{"name":"","type":"uint80","internalType":"uint80"}],"stateMutability":"view"},{"type":"function","name":"owner","inputs":[],"outputs":[{"name":"","type":"address","internalType":"address"}],"stateMutability":"view"},{"type":"function","name":"renounceOwnership","inputs":[],"outputs":[],"stateMutability":"nonpayable"},{"type":"function","name":"setLatestAnswer","inputs":[{"name":"nextAnswer","type":"int256","internalType":"int256"}],"outputs":[],"stateMutability":"nonpayable"},{"type":"function","name":"transferOwnership","inputs":[{"name":"newOwner","type":"address","internalType":"address"}],"outputs":[],"stateMutability":"nonpayable"},{"type":"event","name":"OwnershipTransferred","inputs":[{"name":"previousOwner","type":"address","indexed":true,"internalType":"address"},{"name":"newOwner","type":"address","indexed":true,"internalType":"address"}],"anonymous":false},{"type":"error","name":"OwnableInvalidOwner","inputs":[{"name":"owner","type":"address","internalType":"address"}]},{"type":"error","name":"OwnableUnauthorizedAccount","inputs":[{"name":"account","type":"address","internalType":"address"}]}],"bytecode":{"object":"0x60803460c057601f61037238819003918201601f19168301916001600160401b0383118484101760c457808492604094855283398101031260c05780516001600160a01b038116919082900360c05760200151811560ad575f80546001600160a01b031981168417825560405193916001600160a01b03909116907f8be0079c531659141344cd1fd0a4f28419497f9722a3daafe3b4186f6b6457e09080a360015561029990816100d98239f35b631e4fbdf760e01b5f525f60045260245ffd5b5f80fd5b634e487b7160e01b5f52604160045260245ffdfe60806040526004361015610011575f80fd5b5f3560e01c806304ea97b0146101de578063313ce567146101c357806350d25bcd146101a6578063715018a61461014f5780638da5cb5b14610128578063f2fde38b1461009f5763feaf968c14610066575f80fd5b3461009b575f36600319011261009b5760a0600154604051905f825260208201524260408201524260608201525f6080820152f35b5f80fd5b3461009b57602036600319011261009b576004356001600160a01b0381169081900361009b576100cd61023d565b8015610115575f80546001600160a01b03198116831782556001600160a01b0316907f8be0079c531659141344cd1fd0a4f28419497f9722a3daafe3b4186f6b6457e09080a3005b631e4fbdf760e01b5f525f60045260245ffd5b3461009b575f36600319011261009b575f546040516001600160a01b039091168152602090f35b3461009b575f36600319011261009b5761016761023d565b5f80546001600160a01b0319811682556001600160a01b03167f8be0079c531659141344cd1fd0a4f28419497f9722a3daafe3b4186f6b6457e08280a3005b3461009b575f36600319011261009b576020600154604051908152f35b3461009b575f36600319011261009b57602060405160088152f35b3461009b57602036600319011261009b576004356101fa61023d565b5f81131561020757600155005b60405162461bcd60e51b815260206004820152600e60248201526d34b73b30b634b21030b739bbb2b960911b6044820152606490fd5b5f546001600160a01b0316330361025057565b63118cdaa760e01b5f523360045260245ffdfea2646970667358221220e0b0086c037bbbb87fa236f7c5d5719fe0076d2f0203365642694416189e5b0364736f6c634300081c0033","linkReferences":{}},"methodIdentifiers":{"decimals()":"313ce567","latestAnswer()":"50d25bcd","latestRoundData()":"feaf968c","owner()":"8da5cb5b","renounceOwnership()":"715018a6","setLatestAnswer(int256)":"04ea97b0","transferOwnership(address)":"f2fde38b"},"id":23}