{"abi":[{"type":"constructor","inputs":[{"name":"initialOwner","type":"address","internalType":"address"},{"name":"nftAddress","type":"address","internalType":"address"},{"name":"usdcAddress","type":"address","internalType":"address"},{"name":"oracleAddress","type":"address","internalType":"address"}],"stateMutability":"nonpayable"},{"type":"receive","stateMutability":"payable"},{"type":"function","name":"AVAX_DECIMALS","inputs":[],"outputs":[{"name":"","type":"uint256","internalType":"uint256"}],"stateMutability":"view"},{"type":"function","name":"BPS_DENOMINATOR","inputs":[],"outputs":[{"name":"","type":"uint256","internalType":"uint256"}],"stateMutability":"view"},{"type":"function","name":"MAX_AUCTION_DURATION","inputs":[],"outputs":[{"name":"","type":"uint64","internalType":"uint64"}],"stateMutability":"view"},{"type":"function","name":"MIN_AUCTION_DURATION","inputs":[],"outputs":[{"name":"","type":"uint64","internalType":"uint64"}],"stateMutability":"view"},{"type":"function","name":"MIN_INCREMENT_BPS","inputs":[],"outputs":[{"name":"","type":"uint256","internalType":"uint256"}],"stateMutability":"view"},{"type":"function","name":"ORACLE_DECIMALS","inputs":[],"outputs":[{"name":"","type":"uint256","internalType":"uint256"}],"stateMutability":"view"},{"type":"function","name":"USDC_DECIMALS","inputs":[],"outputs":[{"name":"","type":"uint256","internalType":"uint256"}],"stateMutability":"view"},{"type":"function","name":"auctions","inputs":[{"name":"","type":"uint256","internalType":"uint256"}],"outputs":[{"name":"tokenUri","type":"string","internalType":"string"},{"name":"isItemAuction","type":"bool","internalType":"bool"},{"name":"seller","type":"address","internalType":"address"},{"name":"tokenId","type":"uint256","internalType":"uint256"},{"name":"startTime","type":"uint64","internalType":"uint64"},{"name":"endTime","type":"uint64","internalType":"uint64"},{"name":"startingPrice","type":"uint256","internalType":"uint256"},{"name":"currency","type":"uint8","internalType":"enum ShimejiAuction.Currency"},{"name":"finalized","type":"bool","internalType":"bool"},{"name":"escrowProvider","type":"uint8","internalType":"enum ShimejiAuction.EscrowProvider"},{"name":"escrowSettled","type":"bool","internalType":"bool"}],"stateMutability":"view"},{"type":"function","name":"bidAvax","inputs":[{"name":"auctionId","type":"uint256","internalType":"uint256"}],"outputs":[],"stateMutability":"payable"},{"type":"function","name":"bidUsdc","inputs":[{"name":"auctionId","type":"uint256","internalType":"uint256"},{"name":"amount","type":"uint256","internalType":"uint256"}],"outputs":[],"stateMutability":"nonpayable"},{"type":"function","name":"configureInternalEscrow","inputs":[],"outputs":[],"stateMutability":"nonpayable"},{"type":"function","name":"configureOracle","inputs":[{"name":"nextOracle","type":"address","internalType":"address"}],"outputs":[],"stateMutability":"nonpayable"},{"type":"function","name":"configureTrustlessEscrow","inputs":[{"name":"avaxDestination","type":"address","internalType":"address payable"},{"name":"usdcDestination","type":"address","internalType":"address"}],"outputs":[],"stateMutability":"nonpayable"},{"type":"function","name":"createItemAuction","inputs":[{"name":"tokenId","type":"uint256","internalType":"uint256"},{"name":"startingPrice","type":"uint256","internalType":"uint256"},{"name":"currency","type":"uint8","internalType":"enum ShimejiAuction.Currency"},{"name":"durationSeconds","type":"uint64","internalType":"uint64"}],"outputs":[{"name":"auctionId","type":"uint256","internalType":"uint256"}],"stateMutability":"nonpayable"},{"type":"function","name":"escrowProvider","inputs":[],"outputs":[{"name":"","type":"uint8","internalType":"enum ShimejiAuction.EscrowProvider"}],"stateMutability":"view"},{"type":"function","name":"finalizeAuction","inputs":[{"name":"auctionId","type":"uint256","internalType":"uint256"}],"outputs":[],"stateMutability":"nonpayable"},{"type":"function","name":"getAuction","inputs":[{"name":"auctionId","type":"uint256","internalType":"uint256"}],"outputs":[{"name":"","type":"tuple","internalType":"struct ShimejiAuction.AuctionInfo","components":[{"name":"tokenUri","type":"string","internalType":"string"},{"name":"isItemAuction","type":"bool","internalType":"bool"},{"name":"seller","type":"address","internalType":"address"},{"name":"tokenId","type":"uint256","internalType":"uint256"},{"name":"startTime","type":"uint64","internalType":"uint64"},{"name":"endTime","type":"uint64","internalType":"uint64"},{"name":"startingPrice","type":"uint256","internalType":"uint256"},{"name":"currency","type":"uint8","internalType":"enum ShimejiAuction.Currency"},{"name":"finalized","type":"bool","internalType":"bool"},{"name":"escrowProvider","type":"uint8","internalType":"enum ShimejiAuction.EscrowProvider"},{"name":"escrowSettled","type":"bool","internalType":"bool"}]}],"stateMutability":"view"},{"type":"function","name":"getHighestBid","inputs":[{"name":"auctionId","type":"uint256","internalType":"uint256"}],"outputs":[{"name":"","type":"tuple","internalType":"struct ShimejiAuction.BidInfo","components":[{"name":"bidder","type":"address","internalType":"address"},{"name":"amount","type":"uint256","internalType":"uint256"},{"name":"currency","type":"uint8","internalType":"enum ShimejiAuction.Currency"}]}],"stateMutability":"view"},{"type":"function","name":"highestBids","inputs":[{"name":"","type":"uint256","internalType":"uint256"}],"outputs":[{"name":"bidder","type":"address","internalType":"address"},{"name":"amount","type":"uint256","internalType":"uint256"},{"name":"currency","type":"uint8","internalType":"enum ShimejiAuction.Currency"}],"stateMutability":"view"},{"type":"function","name":"nextAuctionId","inputs":[],"outputs":[{"name":"","type":"uint256","internalType":"uint256"}],"stateMutability":"view"},{"type":"function","name":"nft","inputs":[],"outputs":[{"name":"","type":"address","internalType":"contract ShimejiNFT"}],"stateMutability":"view"},{"type":"function","name":"oracle","inputs":[],"outputs":[{"name":"","type":"address","internalType":"contract IPriceOracleLike"}],"stateMutability":"view"},{"type":"function","name":"owner","inputs":[],"outputs":[{"name":"","type":"address","internalType":"address"}],"stateMutability":"view"},{"type":"function","name":"renounceOwnership","inputs":[],"outputs":[],"stateMutability":"nonpayable"},{"type":"function","name":"totalAuctions","inputs":[],"outputs":[{"name":"","type":"uint256","internalType":"uint256"}],"stateMutability":"view"},{"type":"function","name":"transferOwnership","inputs":[{"name":"newOwner","type":"address","internalType":"address"}],"outputs":[],"stateMutability":"nonpayable"},{"type":"function","name":"trustlessEscrowAvax","inputs":[],"outputs":[{"name":"","type":"address","internalType":"address payable"}],"stateMutability":"view"},{"type":"function","name":"trustlessEscrowUsdc","inputs":[],"outputs":[{"name":"","type":"address","internalType":"address"}],"stateMutability":"view"},{"type":"function","name":"usdc","inputs":[],"outputs":[{"name":"","type":"address","internalType":"contract IERC20"}],"stateMutability":"view"},{"type":"event","name":"AuctionCreated","inputs":[{"name":"auctionId","type":"uint256","indexed":true,"internalType":"uint256"},{"name":"seller","type":"address","indexed":true,"internalType":"address"},{"name":"tokenId","type":"uint256","indexed":true,"internalType":"uint256"},{"name":"currency","type":"uint8","indexed":false,"internalType":"enum ShimejiAuction.Currency"},{"name":"startingPrice","type":"uint256","indexed":false,"internalType":"uint256"},{"name":"endTime","type":"uint64","indexed":false,"internalType":"uint64"}],"anonymous":false},{"type":"event","name":"AuctionFinalized","inputs":[{"name":"auctionId","type":"uint256","indexed":true,"internalType":"uint256"},{"name":"winner","type":"address","indexed":true,"internalType":"address"},{"name":"amount","type":"uint256","indexed":false,"internalType":"uint256"},{"name":"currency","type":"uint8","indexed":false,"internalType":"enum ShimejiAuction.Currency"}],"anonymous":false},{"type":"event","name":"BidPlaced","inputs":[{"name":"auctionId","type":"uint256","indexed":true,"internalType":"uint256"},{"name":"bidder","type":"address","indexed":true,"internalType":"address"},{"name":"amount","type":"uint256","indexed":false,"internalType":"uint256"},{"name":"currency","type":"uint8","indexed":false,"internalType":"enum ShimejiAuction.Currency"}],"anonymous":false},{"type":"event","name":"OwnershipTransferred","inputs":[{"name":"previousOwner","type":"address","indexed":true,"internalType":"address"},{"name":"newOwner","type":"address","indexed":true,"internalType":"address"}],"anonymous":false},{"type":"error","name":"OwnableInvalidOwner","inputs":[{"name":"owner","type":"address","internalType":"address"}]},{"type":"error","name":"OwnableUnauthorizedAccount","inputs":[{"name":"account","type":"address","internalType":"address"}]},{"type":"error","name":"ReentrancyGuardReentrantCall","inputs":[]}],"bytecode":{"object":"0x60c03461017657601f611fce38819003918201601f19168301916001600160401b0383118484101761017a57808492608094604052833981010312610176576100478161018e565b6100536020830161018e565b61006b60606100646040860161018e565b940161018e565b6001600160a01b03909216918215610163575f80546001600160a01b0319811685178255604051959185916001600160a01b0316907f8be0079c531659141344cd1fd0a4f28419497f9722a3daafe3b4186f6b6457e09080a360018055600280546001600160a01b0394851660805291841660a0526001600160a81b031990911691909216179055600380546001600160a01b03199081168317909155600480549091169091179055611e2b90816101a3823960805181818161061501528181610f33015281816117760152611a6b015260a051818181610f9401528181611019015281816118cb01528181611a000152611d990152f35b631e4fbdf760e01b5f525f60045260245ffd5b5f80fd5b634e487b7160e01b5f52604160045260245ffd5b51906001600160a01b03821682036101765756fe608080604052600436101561001c575b50361561001a575f80fd5b005b5f905f3560e01c908163088375d5146113d357508063111cb2581461138557806316002f4a146113685780631a0928dc146112dd5780631ea15502146112bf5780631fa945bb1461127c57806333dcb4c114610fc35780633e413bee14610f7f5780633fb3517814610f6257806347ccca0214610f1e578063571a26a014610e3a578063715018a614610de357806378bd793514610c205780637dc0d1d014610bf85780637f17b5ce14610bdc5780638da5cb5b14610bb55780638f28864414610b1457806397418e5f14610aed57806397b72d39146105ad578063b0cc8d5f14610584578063c1419def14610566578063c2f50a7a14610549578063c41df2ba146102a8578063dc0bfe8c1461027b578063e1a452181461025e578063e808386314610232578063f2fde38b146101ac578063fc5284821461018e5763ff7feb850361000f573461018b578060031936011261018b576004546040516001600160a01b039091168152602090f35b80fd5b503461018b578060031936011261018b576020600554604051908152f35b503461018b57602036600319011261018b576101c66113fd565b6101ce611b62565b6001600160a01b0316801561021e5781546001600160a01b03198116821783556001600160a01b03167f8be0079c531659141344cd1fd0a4f28419497f9722a3daafe3b4186f6b6457e08380a380f35b631e4fbdf760e01b82526004829052602482fd5b503461018b57602036600319011261018b5761024c611b88565b610257600435611649565b6001805580f35b503461018b578060031936011261018b5760206040516127108152f35b503461018b578060031936011261018b57602060ff60025460a01c16604051906102a4816113f3565b8152f35b50602036600319011261018b576004356102c0611b88565b80825260066020526040822060018101546102e89060081c6001600160a01b031615156115d3565b60058101546102fd60ff8260081c1615611611565b6001600160401b03600383015460401c16421015610514576103329060ff60046103278734611bd7565b940154911690611bd7565b908284526007602052604084206040519061034c8261147b565b80546001600160a01b0316825260018101546020830190815260029091015460ff1690610378826113f3565b6040830182905282516001600160a01b03166104825750505010610446575b6104036040516103a68161147b565b33815260026020820134815260408301906103c0876113f3565b868252858752600760205260408720935184546001600160a01b0319166001600160a01b039190911617845551600184015551916103fd836113f3565b016115bb565b60405190348252610413836113f3565b8260208301527ff2adf7b58bf6f84c47a0d36351eb2f4ea4368a86f22908824e22f4446ea9225860403393a36001805580f35b60405162461bcd60e51b815260206004820152601460248201527362656c6f77207374617274696e6720707269636560601b6044820152606490fd5b61049792945051610492826113f3565b611bd7565b6101f481028181046101f4148215171561050057906127106104ba9204906115ae565b116104cd576104c890611cd5565b610397565b60405162461bcd60e51b815260206004820152600b60248201526a62696420746f6f206c6f7760a81b6044820152606490fd5b634e487b7160e01b86526011600452602486fd5b60405162461bcd60e51b815260206004820152600d60248201526c185d58dd1a5bdb88195b991959609a1b6044820152606490fd5b503461018b578060031936011261018b576020604051610e108152f35b503461018b578060031936011261018b576020604051620f42408152f35b503461018b578060031936011261018b576003546040516001600160a01b039091168152602090f35b50346109d45760803660031901126109d45760243560043560443560028110156109d457606435926001600160401b0384168094036109d457610e108410610ab35762278d008411610a7a578015610a4b576040516331a9108f60e11b8152600481018490527f00000000000000000000000000000000000000000000000000000000000000006001600160a01b03169490602081602481895afa9081156109c9575f91610a09575b50336001600160a01b03909116036109d857843b156109d4576040516323b872dd60e01b8152336004820152306024820152604481018590525f81606481838a5af180156109c9576109b4575b50600554945f1986146109a05760018601600555858752600660205260248760408120926040519283809263c87b56dd60e01b82528a60048301525afa908115610995578891610916575b508051906001600160401b0382116109025761070a8354611413565b601f81116108bd575b50976020988991601f841160011461085057926001600160401b03959492819260059592610845575b50508160011b915f199060031b1c19161781555b600181810180546001600160a81b0319163360081b610100600160a81b03161790911790556002810187905560038101805490936fffffffffffffffff0000000000000000906107a090426115ae565b60401b1690854216906fffffffffffffffffffffffffffffffff191617178355846004820155016107d185826115bb565b6002546107e360ff8260a01c166113f3565b62ff000082549160901c169062ff000019161790555460401c16906040519261080b816113f3565b8352858301526040820152827f933467a57d1210df74b1af99da05480955037ed2abaca94870396665a64e0f7360603393a4604051908152f35b015190505f8061073c565b9190601f198416858452828420935b8181106108a657509260019285926005966001600160401b039998961061088e575b505050811b018155610750565b01515f1960f88460031b161c191690555f8080610881565b92938c60018192878601518155019501930161085f565b838a5260208a20601f840160051c810191602085106108f8575b601f0160051c01905b8181106108ed5750610713565b8a81556001016108e0565b90915081906108d7565b634e487b7160e01b89526041600452602489fd5b9050873d8082843e6109288184611496565b820191602081840312610991578051906001600160401b03821161098d570182601f8201121561099157805161095d81611593565b9361096b6040519586611496565b8185526020828401011161098d578060208093018386015e830101525f6106ee565b8280fd5b5080fd5b6040513d8a823e3d90fd5b634e487b7160e01b87526011600452602487fd5b6109c19196505f90611496565b5f945f6106a3565b6040513d5f823e3d90fd5b5f80fd5b60405162461bcd60e51b81526020600482015260096024820152683737ba1037bbb732b960b91b6044820152606490fd5b90506020813d602011610a43575b81610a2460209383611496565b810103126109d457516001600160a01b03811681036109d4575f610656565b3d9150610a17565b60405162461bcd60e51b8152602060048201526007602482015266070726963653d360cc1b6044820152606490fd5b60405162461bcd60e51b81526020600482015260116024820152706475726174696f6e20746f6f206c6f6e6760781b6044820152606490fd5b60405162461bcd60e51b8152602060048201526012602482015271191d5c985d1a5bdb881d1bdbc81cda1bdc9d60721b6044820152606490fd5b346109d4575f3660031901126109d457610b05611b62565b6002805460ff60a01b19169055005b346109d45760203660031901126109d4575f60408051610b338161147b565b82815282602082015201526004355f526007602052606060405f2060405190610b5b8261147b565b80546001600160a01b0316825260018101546020830190815260029091015460408301919060ff16610b8c816113f3565b825260405192516001600160a01b0316835251602083015251610bae816113f3565b6040820152f35b346109d4575f3660031901126109d4575f546040516001600160a01b039091168152602090f35b346109d4575f3660031901126109d45760206040516101f48152f35b346109d4575f3660031901126109d4576002546040516001600160a01b039091168152602090f35b346109d45760203660031901126109d4575f610140604051610c418161144b565b606081528260208201528260408201528260608201528260808201528260a08201528260c08201528260e0820152826101008201528261012082015201526004355f5260066020526040610d7d815f20825190610c9d8261144b565b610ca6816114b7565b8252600181015491602081019260ff8116151584528582019060018060a01b039060081c1681526002830154606083019081526003840154936001600160401b03608085019581811687528160a08701918b1c16815281600560048501549460c0890195865201549760ff89169560e0890196610d22816113f3565b875261010089019760ff8b60081c161515895260ff8b60101c169961012081019a610d4c816113f3565b8b5260ff61014082019c60181c1615158c528e519e8f9e8f9260208452516101606020850152610180840190611557565b9d511515910152516001600160a01b031660608d01525160808c0152511660a08a0152511660c08801525160e087015251610db7816113f3565b61010086015251151561012085015251610dd0816113f3565b6101408401525115156101608301520390f35b346109d4575f3660031901126109d457610dfb611b62565b5f80546001600160a01b0319811682556001600160a01b03167f8be0079c531659141344cd1fd0a4f28419497f9722a3daafe3b4186f6b6457e08280a3005b346109d45760203660031901126109d4576004355f526006602052610eac60405f20610e65816114b7565b9060ff6001820154916002810154600382015460056004840154930154926001600160401b0385851692868660101c16946040519a8b9a6101608c526101608c0190611557565b98888116151560208c015260018060a01b039060081c1660408b015260608a015281811660808a015260401c1660a088015260c0870152610eec816113f3565b60e0860152828260081c161515610100860152610f08816113f3565b61012085015260181c1615156101408301520390f35b346109d4575f3660031901126109d4576040517f00000000000000000000000000000000000000000000000000000000000000006001600160a01b03168152602090f35b346109d4575f3660031901126109d457602060405162278d008152f35b346109d4575f3660031901126109d4576040517f00000000000000000000000000000000000000000000000000000000000000006001600160a01b03168152602090f35b346109d45760403660031901126109d457602435600435610fe2611b88565b811561124c576040516323b872dd60e01b8152336004820152306024820152604481018390526020816064815f6001600160a01b037f0000000000000000000000000000000000000000000000000000000000000000165af180156109c95761121f575b505f81815260066020526040902060018101546110709060081c6001600160a01b031615156115d3565b600581015461108560ff8260081c1615611611565b6001600160401b03600383015460401c16421015610514576110b09060ff6004610327600188611bd7565b90825f52600760205260405f20604051906110ca8261147b565b80546001600160a01b0316825260018101546020830190815260029091015460ff16906110f6826113f3565b6040830182905282516001600160a01b03166111c55750505010610446575b6040516111218161147b565b3381526020810183815260408201919060018084525f858152600760205260409020925183546001600160a01b0319166001600160a01b03919091161783559051908201559051611178916002906103fd836113f3565b604051918252600160208301527ff2adf7b58bf6f84c47a0d36351eb2f4ea4368a86f22908824e22f4446ea9225860403393a360018055005b634e487b7160e01b5f52602160045260245ffd5b6111d592945051610492826113f3565b6101f48102908082046101f4148115171561120b576127106111f89204906115ae565b116104cd5761120690611cd5565b611115565b634e487b7160e01b5f52601160045260245ffd5b6112409060203d602011611245575b6112388183611496565b81019061157b565b611046565b503d61122e565b60405162461bcd60e51b81526020600482015260086024820152670616d6f756e743d360c41b6044820152606490fd5b346109d45760203660031901126109d4576112956113fd565b61129d611b62565b600280546001600160a01b0319166001600160a01b0392909216919091179055005b346109d4575f3660031901126109d45760206040516305f5e1008152f35b346109d45760403660031901126109d4576004356001600160a01b038116908190036109d4576024356001600160a01b03811691908290036109d457611321611b62565b6bffffffffffffffffffffffff60a01b60035416176003556bffffffffffffffffffffffff60a01b6004541617600455600160a01b60ff60a01b1960025416176002555f80f35b346109d4575f3660031901126109d4576020600554604051908152f35b346109d45760203660031901126109d4576004355f526007602052606060405f2060018060a01b038154169060ff6002600183015492015416906040519283526020830152610bae816113f3565b346109d4575f3660031901126109d45780670de0b6b3a764000060209252f35b600211156111b157565b600435906001600160a01b03821682036109d457565b90600182811c92168015611441575b602083101461142d57565b634e487b7160e01b5f52602260045260245ffd5b91607f1691611422565b61016081019081106001600160401b0382111761146757604052565b634e487b7160e01b5f52604160045260245ffd5b606081019081106001600160401b0382111761146757604052565b90601f801991011681019081106001600160401b0382111761146757604052565b9060405191825f8254926114ca84611413565b808452936001811690811561153557506001146114f1575b506114ef92500383611496565b565b90505f9291925260205f20905f915b8183106115195750509060206114ef928201015f6114e2565b6020919350806001915483858901015201910190918492611500565b9050602092506114ef94915060ff191682840152151560051b8201015f6114e2565b805180835260209291819084018484015e5f828201840152601f01601f1916010190565b908160209103126109d4575180151581036109d45790565b6001600160401b03811161146757601f01601f191660200190565b9190820180921161120b57565b906115c5816113f3565b60ff80198354169116179055565b156115da57565b60405162461bcd60e51b815260206004820152600f60248201526e61756374696f6e206d697373696e6760881b6044820152606490fd5b1561161857565b60405162461bcd60e51b8152602060048201526009602482015268199a5b985b1a5e995960ba1b6044820152606490fd5b5f90805f52600660205260405f2091600183019260018060a01b03845460081c16916116768315156115d3565b6005820191825461168d60ff8260081c1615611611565b6001600160401b03600383015460401c164210611b2c576101009061ff001916178355845f52600760205260405f2095604051936116ca8561147b565b87546001600160a01b0316855260018801546020860190815260029098015460408601969060ff166116fb816113f3565b875285516001600160a01b031615611a5d575060ff815460101c1661171f816113f3565b611930575060018060a01b03905460081c1682855161173d816113f3565b611746816113f3565b61189957808080938a51905af161175b611ba8565b501561185f575b825160029190910154906001600160a01b037f000000000000000000000000000000000000000000000000000000000000000081169116813b1561185b576040516323b872dd60e01b81523060048201526001600160a01b03919091166024820152604481019290925282908290606490829084905af180156118505761183b575b505051925190516001600160a01b03909316927ffb6568fb85241d9d6dd59852500921200f2731299964afb904d7c8edd31d449491604091611825816113f3565b8251918252611833816113f3565b6020820152a3565b611846828092611496565b61018b57806117e4565b6040513d84823e3d90fd5b8380fd5b60405162461bcd60e51b8152602060048201526012602482015271185d985e081c185e5bdd5d0819985a5b195960721b6044820152606490fd5b50865160405163a9059cbb60e01b81526001600160a01b039092166004830152602482015260208180604481010381867f00000000000000000000000000000000000000000000000000000000000000006001600160a01b03165af1801561192557611906575b50611762565b61191e9060203d602011611245576112388183611496565b505f611900565b6040513d85823e3d90fd5b9050845161193d816113f3565b611946816113f3565b6119c8578280808060018060a01b03600354168b51905af1611966611ba8565b5015611983575b805463ff00000019166301000000179055611762565b60405162461bcd60e51b815260206004820152601860248201527f6176617820657363726f7720726f757465206661696c656400000000000000006044820152606490fd5b60048054885160405163a9059cbb60e01b81526001600160a01b039283169381019390935260248301526020908290604490829088907f0000000000000000000000000000000000000000000000000000000000000000165af18015611a5257611a33575b5061196d565b611a4b9060203d602011611245576112388183611496565b505f611a2d565b6040513d86823e3d90fd5b6002909301549397509450507f00000000000000000000000000000000000000000000000000000000000000006001600160a01b0316925090823b156109d4576040516323b872dd60e01b81523060048201526001600160a01b039290921660248301526044820152905f908290606490829084905af180156109c957611b16575b5054604080518481527ffb6568fb85241d9d6dd59852500921200f2731299964afb904d7c8edd31d44949260ff16611833816113f3565b611b239193505f90611496565b5f916040611adf565b60405162461bcd60e51b815260206004820152600e60248201526d61756374696f6e2061637469766560901b6044820152606490fd5b5f546001600160a01b03163303611b7557565b63118cdaa760e01b5f523360045260245ffd5b600260015414611b99576002600155565b633ee5aeb560e01b5f5260045ffd5b3d15611bd2573d90611bb982611593565b91611bc76040519384611496565b82523d5f602084013e565b606090565b90600190611be4816113f3565b14611cb3576002546040516350d25bcd60e01b81529190602090839060049082906001600160a01b03165afa9182156109c9575f92611c7f575b505f821315611c455781810291818304149015171561120b57670de0b6b3a7640000900490565b60405162461bcd60e51b81526020600482015260126024820152716f7261636c6520756e617661696c61626c6560701b6044820152606490fd5b9091506020813d602011611cab575b81611c9b60209383611496565b810103126109d45751905f611c1e565b3d9150611c8e565b6305f5e1008102908082046305f5e100149015171561120b57620f4240900490565b80516001600160a01b0316158015611de9575b611dce576040810151611cfa816113f3565b611d03816113f3565b611d63575f80808093602060018060a01b03825116910151905af1611d26611ba8565b5015611d2e57565b60405162461bcd60e51b815260206004820152600d60248201526c1c99599d5b990819985a5b1959609a1b6044820152606490fd5b805160209182015160405163a9059cbb60e01b81526001600160a01b03909216600483015260248201529081806044810103815f7f00000000000000000000000000000000000000000000000000000000000000006001600160a01b03165af180156109c957611dd1575b50565b611dce9060203d602011611245576112388183611496565b50602081015115611ce856fea2646970667358221220653676a5b654c2c1883689c4a3cf4175272e50475a849a49bc1950864da1146c64736f6c634300081c0033","linkReferences":{}},"methodIdentifiers":{"AVAX_DECIMALS()":"088375d5","BPS_DENOMINATOR()":"e1a45218","MAX_AUCTION_DURATION()":"3fb35178","MIN_AUCTION_DURATION()":"c2f50a7a","MIN_INCREMENT_BPS()":"7f17b5ce","ORACLE_DECIMALS()":"1ea15502","USDC_DECIMALS()":"c1419def","auctions(uint256)":"571a26a0","bidAvax(uint256)":"c41df2ba","bidUsdc(uint256,uint256)":"33dcb4c1","configureInternalEscrow()":"97418e5f","configureOracle(address)":"1fa945bb","configureTrustlessEscrow(address,address)":"1a0928dc","createItemAuction(uint256,uint256,uint8,uint64)":"97b72d39","escrowProvider()":"dc0bfe8c","finalizeAuction(uint256)":"e8083863","getAuction(uint256)":"78bd7935","getHighestBid(uint256)":"8f288644","highestBids(uint256)":"111cb258","nextAuctionId()":"fc528482","nft()":"47ccca02","oracle()":"7dc0d1d0","owner()":"8da5cb5b","renounceOwnership()":"715018a6","totalAuctions()":"16002f4a","transferOwnership(address)":"f2fde38b","trustlessEscrowAvax()":"b0cc8d5f","trustlessEscrowUsdc()":"ff7feb85","usdc()":"3e413bee"},"id":25}