{"abi":[{"type":"constructor","inputs":[{"name":"initialOwner","type":"address","internalType":"address"}],"stateMutability":"nonpayable"},{"type":"function","name":"approve","inputs":[{"name":"to","type":"address","internalType":"address"},{"name":"tokenId","type":"uint256","internalType":"uint256"}],"outputs":[],"stateMutability":"nonpayable"},{"type":"function","name":"balanceOf","inputs":[{"name":"owner","type":"address","internalType":"address"}],"outputs":[{"name":"","type":"uint256","internalType":"uint256"}],"stateMutability":"view"},{"type":"function","name":"createCommissionEgg","inputs":[{"name":"tokenUri","type":"string","internalType":"string"}],"outputs":[{"name":"","type":"uint256","internalType":"uint256"}],"stateMutability":"nonpayable"},{"type":"function","name":"createFinishedNft","inputs":[{"name":"tokenUri","type":"string","internalType":"string"}],"outputs":[{"name":"","type":"uint256","internalType":"uint256"}],"stateMutability":"nonpayable"},{"type":"function","name":"creatorCanUpdateMetadata","inputs":[{"name":"","type":"uint256","internalType":"uint256"}],"outputs":[{"name":"","type":"bool","internalType":"bool"}],"stateMutability":"view"},{"type":"function","name":"creatorOf","inputs":[{"name":"","type":"uint256","internalType":"uint256"}],"outputs":[{"name":"","type":"address","internalType":"address"}],"stateMutability":"view"},{"type":"function","name":"freezeCreatorMetadataUpdates","inputs":[{"name":"tokenId","type":"uint256","internalType":"uint256"}],"outputs":[],"stateMutability":"nonpayable"},{"type":"function","name":"getApproved","inputs":[{"name":"tokenId","type":"uint256","internalType":"uint256"}],"outputs":[{"name":"","type":"address","internalType":"address"}],"stateMutability":"view"},{"type":"function","name":"isApprovedForAll","inputs":[{"name":"owner","type":"address","internalType":"address"},{"name":"operator","type":"address","internalType":"address"}],"outputs":[{"name":"","type":"bool","internalType":"bool"}],"stateMutability":"view"},{"type":"function","name":"isCommissionEgg","inputs":[{"name":"tokenId","type":"uint256","internalType":"uint256"}],"outputs":[{"name":"","type":"bool","internalType":"bool"}],"stateMutability":"view"},{"type":"function","name":"metadataUpdater","inputs":[],"outputs":[{"name":"","type":"address","internalType":"address"}],"stateMutability":"view"},{"type":"function","name":"mint","inputs":[{"name":"to","type":"address","internalType":"address"},{"name":"tokenUri","type":"string","internalType":"string"}],"outputs":[{"name":"","type":"uint256","internalType":"uint256"}],"stateMutability":"nonpayable"},{"type":"function","name":"mintCommissionEgg","inputs":[{"name":"to","type":"address","internalType":"address"},{"name":"creator","type":"address","internalType":"address"},{"name":"tokenUri","type":"string","internalType":"string"}],"outputs":[{"name":"","type":"uint256","internalType":"uint256"}],"stateMutability":"nonpayable"},{"type":"function","name":"minter","inputs":[],"outputs":[{"name":"","type":"address","internalType":"address"}],"stateMutability":"view"},{"type":"function","name":"name","inputs":[],"outputs":[{"name":"","type":"string","internalType":"string"}],"stateMutability":"view"},{"type":"function","name":"nextTokenId","inputs":[],"outputs":[{"name":"","type":"uint256","internalType":"uint256"}],"stateMutability":"view"},{"type":"function","name":"owner","inputs":[],"outputs":[{"name":"","type":"address","internalType":"address"}],"stateMutability":"view"},{"type":"function","name":"ownerOf","inputs":[{"name":"tokenId","type":"uint256","internalType":"uint256"}],"outputs":[{"name":"","type":"address","internalType":"address"}],"stateMutability":"view"},{"type":"function","name":"renounceOwnership","inputs":[],"outputs":[],"stateMutability":"nonpayable"},{"type":"function","name":"safeTransferFrom","inputs":[{"name":"from","type":"address","internalType":"address"},{"name":"to","type":"address","internalType":"address"},{"name":"tokenId","type":"uint256","internalType":"uint256"}],"outputs":[],"stateMutability":"nonpayable"},{"type":"function","name":"safeTransferFrom","inputs":[{"name":"from","type":"address","internalType":"address"},{"name":"to","type":"address","internalType":"address"},{"name":"tokenId","type":"uint256","internalType":"uint256"},{"name":"data","type":"bytes","internalType":"bytes"}],"outputs":[],"stateMutability":"nonpayable"},{"type":"function","name":"setApprovalForAll","inputs":[{"name":"operator","type":"address","internalType":"address"},{"name":"approved","type":"bool","internalType":"bool"}],"outputs":[],"stateMutability":"nonpayable"},{"type":"function","name":"setMetadataUpdater","inputs":[{"name":"updater","type":"address","internalType":"address"}],"outputs":[],"stateMutability":"nonpayable"},{"type":"function","name":"setMinter","inputs":[{"name":"nextMinter","type":"address","internalType":"address"}],"outputs":[],"stateMutability":"nonpayable"},{"type":"function","name":"supportsInterface","inputs":[{"name":"interfaceId","type":"bytes4","internalType":"bytes4"}],"outputs":[{"name":"","type":"bool","internalType":"bool"}],"stateMutability":"view"},{"type":"function","name":"symbol","inputs":[],"outputs":[{"name":"","type":"string","internalType":"string"}],"stateMutability":"view"},{"type":"function","name":"tokenKindOf","inputs":[{"name":"","type":"uint256","internalType":"uint256"}],"outputs":[{"name":"","type":"uint8","internalType":"enum ShimejiNFT.TokenKind"}],"stateMutability":"view"},{"type":"function","name":"tokenURI","inputs":[{"name":"tokenId","type":"uint256","internalType":"uint256"}],"outputs":[{"name":"","type":"string","internalType":"string"}],"stateMutability":"view"},{"type":"function","name":"totalSupply","inputs":[],"outputs":[{"name":"","type":"uint256","internalType":"uint256"}],"stateMutability":"view"},{"type":"function","name":"transfer","inputs":[{"name":"from","type":"address","internalType":"address"},{"name":"to","type":"address","internalType":"address"},{"name":"tokenId","type":"uint256","internalType":"uint256"}],"outputs":[],"stateMutability":"nonpayable"},{"type":"function","name":"transferFrom","inputs":[{"name":"from","type":"address","internalType":"address"},{"name":"to","type":"address","internalType":"address"},{"name":"tokenId","type":"uint256","internalType":"uint256"}],"outputs":[],"stateMutability":"nonpayable"},{"type":"function","name":"transferOwnership","inputs":[{"name":"newOwner","type":"address","internalType":"address"}],"outputs":[],"stateMutability":"nonpayable"},{"type":"function","name":"updateTokenUri","inputs":[{"name":"tokenId","type":"uint256","internalType":"uint256"},{"name":"newUri","type":"string","internalType":"string"}],"outputs":[],"stateMutability":"nonpayable"},{"type":"function","name":"updateTokenUriAsCreator","inputs":[{"name":"tokenId","type":"uint256","internalType":"uint256"},{"name":"newUri","type":"string","internalType":"string"}],"outputs":[],"stateMutability":"nonpayable"},{"type":"event","name":"Approval","inputs":[{"name":"owner","type":"address","indexed":true,"internalType":"address"},{"name":"approved","type":"address","indexed":true,"internalType":"address"},{"name":"tokenId","type":"uint256","indexed":true,"internalType":"uint256"}],"anonymous":false},{"type":"event","name":"ApprovalForAll","inputs":[{"name":"owner","type":"address","indexed":true,"internalType":"address"},{"name":"operator","type":"address","indexed":true,"internalType":"address"},{"name":"approved","type":"bool","indexed":false,"internalType":"bool"}],"anonymous":false},{"type":"event","name":"BatchMetadataUpdate","inputs":[{"name":"_fromTokenId","type":"uint256","indexed":false,"internalType":"uint256"},{"name":"_toTokenId","type":"uint256","indexed":false,"internalType":"uint256"}],"anonymous":false},{"type":"event","name":"MetadataUpdate","inputs":[{"name":"_tokenId","type":"uint256","indexed":false,"internalType":"uint256"}],"anonymous":false},{"type":"event","name":"OwnershipTransferred","inputs":[{"name":"previousOwner","type":"address","indexed":true,"internalType":"address"},{"name":"newOwner","type":"address","indexed":true,"internalType":"address"}],"anonymous":false},{"type":"event","name":"Transfer","inputs":[{"name":"from","type":"address","indexed":true,"internalType":"address"},{"name":"to","type":"address","indexed":true,"internalType":"address"},{"name":"tokenId","type":"uint256","indexed":true,"internalType":"uint256"}],"anonymous":false},{"type":"error","name":"ERC721IncorrectOwner","inputs":[{"name":"sender","type":"address","internalType":"address"},{"name":"tokenId","type":"uint256","internalType":"uint256"},{"name":"owner","type":"address","internalType":"address"}]},{"type":"error","name":"ERC721InsufficientApproval","inputs":[{"name":"operator","type":"address","internalType":"address"},{"name":"tokenId","type":"uint256","internalType":"uint256"}]},{"type":"error","name":"ERC721InvalidApprover","inputs":[{"name":"approver","type":"address","internalType":"address"}]},{"type":"error","name":"ERC721InvalidOperator","inputs":[{"name":"operator","type":"address","internalType":"address"}]},{"type":"error","name":"ERC721InvalidOwner","inputs":[{"name":"owner","type":"address","internalType":"address"}]},{"type":"error","name":"ERC721InvalidReceiver","inputs":[{"name":"receiver","type":"address","internalType":"address"}]},{"type":"error","name":"ERC721InvalidSender","inputs":[{"name":"sender","type":"address","internalType":"address"}]},{"type":"error","name":"ERC721NonexistentToken","inputs":[{"name":"tokenId","type":"uint256","internalType":"uint256"}]},{"type":"error","name":"OwnableInvalidOwner","inputs":[{"name":"owner","type":"address","internalType":"address"}]},{"type":"error","name":"OwnableUnauthorizedAccount","inputs":[{"name":"account","type":"address","internalType":"address"}]}],"bytecode":{"object":"0x60806040523461038957611d246020813803918261001c8161038d565b93849283398101031261038957516001600160a01b0381169081900361038957610046604061038d565b90600f82526e5368696d656a69204149205065747360881b602083015261006d604061038d565b60078152665348494d454a4960c81b602082015282519091906001600160401b03811161029d575f54600181811c9116801561037f575b602082101461027f57601f811161031d575b506020601f82116001146102bc57819293945f926102b1575b50508160011b915f199060031b1c1916175f555b81516001600160401b03811161029d57600154600181811c91168015610293575b602082101461027f57601f811161021c575b50602092601f82116001146101bb57928192935f926101b0575b50508160011b915f199060031b1c1916176001555b801561019d57600780546001600160a01b03198116831790915560405191906001600160a01b03167f8be0079c531659141344cd1fd0a4f28419497f9722a3daafe3b4186f6b6457e05f80a361197190816103b38239f35b631e4fbdf760e01b5f525f60045260245ffd5b015190505f80610130565b601f1982169360015f52805f20915f5b86811061020457508360019596106101ec575b505050811b01600155610145565b01515f1960f88460031b161c191690555f80806101de565b919260206001819286850151815501940192016101cb565b60015f527fb10e2d527612073b26eecdfd717e6a320cf44b4afac2b0732d9fcbe2b7fa0cf6601f830160051c81019160208410610275575b601f0160051c01905b81811061026a5750610116565b5f815560010161025d565b9091508190610254565b634e487b7160e01b5f52602260045260245ffd5b90607f1690610104565b634e487b7160e01b5f52604160045260245ffd5b015190505f806100cf565b601f198216905f8052805f20915f5b818110610305575095836001959697106102ed575b505050811b015f556100e3565b01515f1960f88460031b161c191690555f80806102e0565b9192602060018192868b0151815501940192016102cb565b5f80527f290decd9548b62a8d60345a988386fc84ba6bc95484008f6362f93160ef3e563601f830160051c81019160208410610375575b601f0160051c01905b81811061036a57506100b6565b5f815560010161035d565b9091508190610354565b90607f16906100a4565b5f80fd5b6040519190601f01601f191682016001600160401b0381118382101761029d5760405256fe6080806040526004361015610012575f80fd5b5f3560e01c90816301ffc9a714610e8f5750806306fdde0314610ded5780630754617214610dc5578063081812fc14610d89578063095ea7b314610c9f57806318160ddd146108c15780632324460114610c4957806323b872dd14610c32578063389441a014610b4f57806342842e0e1461065a57806349d4c9a514610ae35780634b77a05314610a2f578063589a1743146109fd5780636352211e146109cd5780636ba253fd1461098a57806370a0823114610939578063715018a6146108de57806375794a3c146108c15780637c5c9270146108925780638325c62f1461086a5780638da5cb5b1461084257806395d89b4114610778578063a22cb465146106dd578063b88d4fde14610671578063beabacc81461065a578063c87b56dd14610623578063d0def52114610453578063d31af48414610380578063e985e9c514610329578063f15384fd146102e3578063f2fde38b1461025d578063f3da04ba14610223578063faa7b310146101d95763fca3b5aa14610192575f80fd5b346101d55760203660031901126101d5576101ab610f38565b6101b3611414565b600980546001600160a01b0319166001600160a01b0392909216919091179055005b5f80fd5b346101d55760203660031901126101d5576004355f52600c60205260ff60405f205416604051600282101561020f576020918152f35b634e487b7160e01b5f52602160045260245ffd5b346101d55760203660031901126101d5576004355f52600c60205260ff60405f205416600281101561020f57602090600160405191148152f35b346101d55760203660031901126101d557610276610f38565b61027e611414565b6001600160a01b031680156102d057600780546001600160a01b0319811683179091556001600160a01b03167f8be0079c531659141344cd1fd0a4f28419497f9722a3daafe3b4186f6b6457e05f80a3005b631e4fbdf760e01b5f525f60045260245ffd5b346101d55760203660031901126101d55760043567ffffffffffffffff81116101d5576103216103196020923690600401610f64565b33913361143b565b604051908152f35b346101d55760403660031901126101d557610342610f38565b61034a610f4e565b9060018060a01b03165f52600560205260405f209060018060a01b03165f52602052602060ff60405f2054166040519015158152f35b346101d55761038e36610fcc565b5f838152600260205260409020549192916103b3906001600160a01b0316151561126d565b600a546001600160a01b0316806103f157506103ef926103e9916103e260018060a01b036007541633146113a8565b3691611052565b906115ba565b005b3314801561043f575b1561040c576103ef926103e9916103e2565b60405162461bcd60e51b815260206004820152600b60248201526a3737ba103ab83230ba32b960a91b6044820152606490fd5b506007546001600160a01b031633146103fa565b346101d55760403660031901126101d55761046c610f38565b60243567ffffffffffffffff81116101d55761048c903690600401610f64565b600954919290916001600160a01b0316806105eb57506104b760018060a01b036007541633146113a8565b600782106105b157600854915f19831461059d57600183016008556040516020946104e28683611000565b5f82526001600160a01b0384161561058a576001600160a01b0361050686866114fb565b1661057757610524926103e261051e93878733611721565b836115ba565b815f52600b835260405f209060018060a01b03166001600160601b0360a01b825416179055805f52600c825260405f2060ff198154169055805f52600d825260405f2060ff198154169055604051908152f35b6339e3563760e11b5f525f60045260245ffd5b633250574960e11b5f525f60045260245ffd5b634e487b7160e01b5f52601160045260245ffd5b60405162461bcd60e51b81526020600482015260126024820152711d1bdad95b955c9a481d1bdbc81cda1bdc9d60721b6044820152606490fd5b33146104b75760405162461bcd60e51b815260206004820152600a6024820152693737ba1036b4b73a32b960b11b6044820152606490fd5b346101d55760203660031901126101d5576106566106426004356112e3565b604051918291602083526020830190610f14565b0390f35b346101d5576103ef61066b36610f92565b91611248565b346101d55760803660031901126101d55761068a610f38565b610692610f4e565b906044356064359267ffffffffffffffff84116101d557366023850112156101d5576106cb6103ef943690602481600401359101611052565b926106d78383836110c0565b33611856565b346101d55760403660031901126101d5576106f6610f38565b602435908115158092036101d5576001600160a01b031690811561076557335f52600560205260405f20825f5260205260405f2060ff1981541660ff83161790556040519081527f17307eab39ab6107e8899845ad3d59bd9653f200f220920489ca2b5937696c3160203392a3005b50630b61174360e31b5f5260045260245ffd5b346101d5575f3660031901126101d5576040515f60015461079881611088565b808452906001811690811561081e57506001146107c0575b6106568361064281850382611000565b91905060015f527fb10e2d527612073b26eecdfd717e6a320cf44b4afac2b0732d9fcbe2b7fa0cf6915f905b808210610804575090915081016020016106426107b0565b9192600181602092548385880101520191019092916107ec565b60ff191660208086019190915291151560051b8401909101915061064290506107b0565b346101d5575f3660031901126101d5576007546040516001600160a01b039091168152602090f35b346101d5575f3660031901126101d557600a546040516001600160a01b039091168152602090f35b346101d55760203660031901126101d5576004355f52600d602052602060ff60405f2054166040519015158152f35b346101d5575f3660031901126101d5576020600854604051908152f35b346101d5575f3660031901126101d5576108f6611414565b600780546001600160a01b031981169091555f906001600160a01b03167f8be0079c531659141344cd1fd0a4f28419497f9722a3daafe3b4186f6b6457e08280a3005b346101d55760203660031901126101d5576001600160a01b0361095a610f38565b168015610977575f526003602052602060405f2054604051908152f35b6322718ad960e21b5f525f60045260245ffd5b346101d55760203660031901126101d5576109a3610f38565b6109ab611414565b600a80546001600160a01b0319166001600160a01b0392909216919091179055005b346101d55760203660031901126101d55760206109eb6004356113e0565b6040516001600160a01b039091168152f35b346101d55760203660031901126101d5576004355f52600b602052602060018060a01b0360405f205416604051908152f35b346101d557610a3d36610fcc565b5f83815260026020526040902054919291610a62906001600160a01b0316151561126d565b815f52600b602052610a8160018060a01b0360405f20541633146112a9565b815f52600d60205260ff60405f20541615610aa5576103ef926103e9913691611052565b60405162461bcd60e51b815260206004820152601660248201527531b932b0ba37b9103ab83230ba32b990333937bd32b760511b6044820152606490fd5b346101d55760203660031901126101d5576004355f81815260026020526040902054610b19906001600160a01b0316151561126d565b805f52600b602052610b3860018060a01b0360405f20541633146112a9565b5f908152600d60205260409020805460ff19169055005b346101d55760203660031901126101d55760043567ffffffffffffffff81116101d557610b80903690600401610f64565b600781106105b157600854905f19821461059d5760018201600855604051602093610bab8583611000565b5f8252331561058a576001600160a01b03610bc685336114fb565b1661057757610be4926103e2610bde93863333611721565b826115ba565b5f818152600b8352604080822080546001600160a01b03191633179055828252600c8452808220805460ff19908116909155838352600d855291819020805490921660011790915551908152f35b346101d5576103ef610c4336610f92565b916110c0565b346101d55760603660031901126101d557610c62610f38565b610c6a610f4e565b6044359067ffffffffffffffff82116101d557602092610c91610321933690600401610f64565b91610c9a611414565b61143b565b346101d55760403660031901126101d557610cb8610f38565b602435610cc4816113e0565b33151580610d76575b80610d49575b610d365781906001600160a01b0384811691167f8c5be1e5ebec7d5bd14f71427d1e84f3dd0314c0f7b2291e5b200ac8c7c3b9255f80a45f90815260046020526040902080546001600160a01b0319166001600160a01b03909216919091179055005b63a9fbf51f60e01b5f523360045260245ffd5b506001600160a01b0381165f90815260056020908152604080832033845290915290205460ff1615610cd3565b506001600160a01b038116331415610ccd565b346101d55760203660031901126101d557600435610da6816113e0565b505f526004602052602060018060a01b0360405f205416604051908152f35b346101d5575f3660031901126101d5576009546040516001600160a01b039091168152602090f35b346101d5575f3660031901126101d5576040515f5f54610e0c81611088565b808452906001811690811561081e5750600114610e33576106568361064281850382611000565b5f8080527f290decd9548b62a8d60345a988386fc84ba6bc95484008f6362f93160ef3e563939250905b808210610e75575090915081016020016106426107b0565b919260018160209254838588010152019101909291610e5d565b346101d55760203660031901126101d5576004359063ffffffff60e01b82168092036101d557602091632483248360e11b8114908115610ed1575b5015158152f35b6380ac58cd60e01b811491508115610f03575b8115610ef2575b5083610eca565b6301ffc9a760e01b14905083610eeb565b635b5e139f60e01b81149150610ee4565b805180835260209291819084018484015e5f828201840152601f01601f1916010190565b600435906001600160a01b03821682036101d557565b602435906001600160a01b03821682036101d557565b9181601f840112156101d55782359167ffffffffffffffff83116101d557602083818601950101116101d557565b60609060031901126101d5576004356001600160a01b03811681036101d557906024356001600160a01b03811681036101d5579060443590565b9060406003198301126101d557600435916024359067ffffffffffffffff82116101d557610ffc91600401610f64565b9091565b90601f8019910116810190811067ffffffffffffffff82111761102257604052565b634e487b7160e01b5f52604160045260245ffd5b67ffffffffffffffff811161102257601f01601f191660200190565b92919261105e82611036565b9161106c6040519384611000565b8294818452818301116101d5578281602093845f960137010152565b90600182811c921680156110b6575b60208310146110a257565b634e487b7160e01b5f52602260045260245ffd5b91607f1691611097565b6001600160a01b039091169190821561058a575f828152600260205260409020546001600160a01b0316928290331515806111b3575b5084611180575b805f52600360205260405f2060018154019055815f52600260205260405f20816001600160601b0360a01b825416179055847fddf252ad1be2c89b69c2b068fc378daa952ba7f163c4a11628f55a4df523b3ef5f80a46001600160a01b031680830361116857505050565b6364283d7b60e01b5f5260045260245260445260645ffd5b5f82815260046020526040902080546001600160a01b0319169055845f52600360205260405f205f1981540190556110fd565b909150806111f7575b156111c95782905f6110f6565b82846111e157637e27328960e01b5f5260045260245ffd5b63177e802f60e01b5f523360045260245260445ffd5b503384148015611226575b806111bc57505f838152600460205260409020546001600160a01b031633146111bc565b505f84815260056020908152604080832033845290915290205460ff16611202565b909161126b926040519261125d602085611000565b5f84526106d78383836110c0565b565b1561127457565b60405162461bcd60e51b815260206004820152600d60248201526c746f6b656e206d697373696e6760981b6044820152606490fd5b156112b057565b60405162461bcd60e51b815260206004820152600b60248201526a3737ba1031b932b0ba37b960a91b6044820152606490fd5b6112ec816113e0565b505f52600660205260405f2060405190815f82549261130a84611088565b80845293600181169081156113865750600114611342575b5061132f92500382611000565b5f60405161133e602082611000565b5290565b90505f9291925260205f20905f915b81831061136a57505090602061132f928201015f611322565b6020919350806001915483858801015201910190918392611351565b90506020925061132f94915060ff191682840152151560051b8201015f611322565b156113af57565b60405162461bcd60e51b81526020600482015260096024820152683737ba1037bbb732b960b91b6044820152606490fd5b5f818152600260205260409020546001600160a01b0316908115611402575090565b637e27328960e01b5f5260045260245ffd5b6007546001600160a01b0316330361142857565b63118cdaa760e01b5f523360045260245ffd5b93929093600783106105b157600854925f19841461059d576001840160085583956040519161146b602084611000565b5f83526001600160a01b0384161561058a576001600160a01b0361148f87866114fb565b16610577576103e261051e93876114a69633611721565b815f52600b60205260405f209060018060a01b03166001600160601b0360a01b825416179055805f52600c60205260405f20600160ff198254161790555f52600d60205260405f20600160ff19825416179055565b5f828152600260205260409020546001600160a01b0316919082611587575b6001600160a01b03168061156f575b815f52600260205260405f20816001600160601b0360a01b825416179055827fddf252ad1be2c89b69c2b068fc378daa952ba7f163c4a11628f55a4df523b3ef5f80a490565b805f52600360205260405f2060018154019055611529565b5f82815260046020526040902080546001600160a01b0319169055825f52600360205260405f205f19815401905561151a565b919091805f52600660205260405f20835167ffffffffffffffff8111611022576115e48254611088565b601f81116116dc575b506020601f821160011461165457908060209493927ff8e1a15aba9398e019f0b49df1a4fde98ee17ae345cb5f6b5e2c27f5033e8ce796975f92611649575b50508160011b915f199060031b1c19161790555b604051908152a1565b015190505f8061162c565b601f19821695835f52815f20965f5b8181106116c4575096600192849260209796957ff8e1a15aba9398e019f0b49df1a4fde98ee17ae345cb5f6b5e2c27f5033e8ce7999a106116ac575b505050811b019055611640565b01515f1960f88460031b161c191690555f808061169f565b83830151895560019098019760209384019301611663565b825f5260205f20601f830160051c81019160208410611717575b601f0160051c01905b81811061170c57506115ed565b5f81556001016116ff565b90915081906116f6565b9291813b611730575b50505050565b604051630a85bd0160e11b81526001600160a01b0394851660048201525f6024820152604481019190915260806064820152921691906020908290819061177b906084830190610f14565b03815f865af15f9181611811575b506117de57503d156117d7573d61179f81611036565b906117ad6040519283611000565b81523d5f602083013e5b805190816117d25782633250574960e11b5f5260045260245ffd5b602001fd5b60606117b7565b6001600160e01b03191663757a42ff60e11b016117ff57505f80808061172a565b633250574960e11b5f5260045260245ffd5b9091506020813d60201161184e575b8161182d60209383611000565b810103126101d557516001600160e01b0319811681036101d557905f611789565b3d9150611820565b823b611864575b5050505050565b604051630a85bd0160e11b81526001600160a01b0391821660048201529181166024830152604482019390935260806064820152911691602090829081906118b0906084830190610f14565b03815f865af15f91816118f6575b506118d457503d156117d7573d61179f81611036565b6001600160e01b03191663757a42ff60e11b016117ff57505f8080808061185d565b9091506020813d602011611933575b8161191260209383611000565b810103126101d557516001600160e01b0319811681036101d557905f6118be565b3d915061190556fea2646970667358221220fd915d1c35b2b55a16c64e73e840f05f5eb14f5f69b021b866ab3fecb315de2664736f6c634300081c0033","linkReferences":{}},"methodIdentifiers":{"approve(address,uint256)":"095ea7b3","balanceOf(address)":"70a08231","createCommissionEgg(string)":"f15384fd","createFinishedNft(string)":"389441a0","creatorCanUpdateMetadata(uint256)":"7c5c9270","creatorOf(uint256)":"589a1743","freezeCreatorMetadataUpdates(uint256)":"49d4c9a5","getApproved(uint256)":"081812fc","isApprovedForAll(address,address)":"e985e9c5","isCommissionEgg(uint256)":"f3da04ba","metadataUpdater()":"8325c62f","mint(address,string)":"d0def521","mintCommissionEgg(address,address,string)":"23244601","minter()":"07546172","name()":"06fdde03","nextTokenId()":"75794a3c","owner()":"8da5cb5b","ownerOf(uint256)":"6352211e","renounceOwnership()":"715018a6","safeTransferFrom(address,address,uint256)":"42842e0e","safeTransferFrom(address,address,uint256,bytes)":"b88d4fde","setApprovalForAll(address,bool)":"a22cb465","setMetadataUpdater(address)":"6ba253fd","setMinter(address)":"fca3b5aa","supportsInterface(bytes4)":"01ffc9a7","symbol()":"95d89b41","tokenKindOf(uint256)":"faa7b310","tokenURI(uint256)":"c87b56dd","totalSupply()":"18160ddd","transfer(address,address,uint256)":"beabacc8","transferFrom(address,address,uint256)":"23b872dd","transferOwnership(address)":"f2fde38b","updateTokenUri(uint256,string)":"d31af484","updateTokenUriAsCreator(uint256,string)":"4b77a053"},"id":29}