{"abi":[{"type":"constructor","inputs":[{"name":"initialOwner","type":"address","internalType":"address"}],"stateMutability":"nonpayable"},{"type":"receive","stateMutability":"payable"},{"type":"function","name":"operator","inputs":[],"outputs":[{"name":"","type":"address","internalType":"address"}],"stateMutability":"view"},{"type":"function","name":"owner","inputs":[],"outputs":[{"name":"","type":"address","internalType":"address"}],"stateMutability":"view"},{"type":"function","name":"payoutNative","inputs":[{"name":"to","type":"address","internalType":"address payable"},{"name":"amount","type":"uint256","internalType":"uint256"}],"outputs":[],"stateMutability":"nonpayable"},{"type":"function","name":"payoutToken","inputs":[{"name":"token","type":"address","internalType":"address"},{"name":"to","type":"address","internalType":"address"},{"name":"amount","type":"uint256","internalType":"uint256"}],"outputs":[],"stateMutability":"nonpayable"},{"type":"function","name":"renounceOwnership","inputs":[],"outputs":[],"stateMutability":"nonpayable"},{"type":"function","name":"setOperator","inputs":[{"name":"nextOperator","type":"address","internalType":"address"}],"outputs":[],"stateMutability":"nonpayable"},{"type":"function","name":"transferOwnership","inputs":[{"name":"newOwner","type":"address","internalType":"address"}],"outputs":[],"stateMutability":"nonpayable"},{"type":"event","name":"OwnershipTransferred","inputs":[{"name":"previousOwner","type":"address","indexed":true,"internalType":"address"},{"name":"newOwner","type":"address","indexed":true,"internalType":"address"}],"anonymous":false},{"type":"error","name":"OwnableInvalidOwner","inputs":[{"name":"owner","type":"address","internalType":"address"}]},{"type":"error","name":"OwnableUnauthorizedAccount","inputs":[{"name":"account","type":"address","internalType":"address"}]}],"bytecode":{"object":"0x60803460b857601f61059c38819003918201601f19168301916001600160401b0383118484101760bc5780849260209460405283398101031260b857516001600160a01b0381169081900360b857801560a5575f80546001600160a01b031981168317825560405192916001600160a01b03909116907f8be0079c531659141344cd1fd0a4f28419497f9722a3daafe3b4186f6b6457e09080a36104cb90816100d18239f35b631e4fbdf760e01b5f525f60045260245ffd5b5f80fd5b634e487b7160e01b5f52604160045260245ffdfe608080604052600436101561001c575b50361561001a575f80fd5b005b5f3560e01c908163570ca735146103a257508063715018a61461034b5780638524e778146102685780638da5cb5b14610241578063a6a11ee714610141578063b3ab15fb146100fe5763f2fde38b14610075575f61000f565b346100fa5760203660031901126100fa5761008e6103c5565b61009661046f565b6001600160a01b031680156100e7575f80546001600160a01b03198116831782556001600160a01b0316907f8be0079c531659141344cd1fd0a4f28419497f9722a3daafe3b4186f6b6457e09080a3005b631e4fbdf760e01b5f525f60045260245ffd5b5f80fd5b346100fa5760203660031901126100fa576101176103c5565b61011f61046f565b600180546001600160a01b0319166001600160a01b0392909216919091179055005b346100fa5760403660031901126100fa576004356001600160a01b038116908190036100fa575f808080936024359060018060a01b038354163314801561022d575b61018c906103db565b610197821515610416565b5af13d15610228573d67ffffffffffffffff811161021457604051906101c7601f8201601f19166020018361044d565b81525f60203d92013e5b156101d857005b60405162461bcd60e51b81526020600482015260146024820152731b985d1a5d99481c185e5bdd5d0819985a5b195960621b6044820152606490fd5b634e487b7160e01b5f52604160045260245ffd5b6101d1565b506001546001600160a01b03163314610183565b346100fa575f3660031901126100fa575f546040516001600160a01b039091168152602090f35b346100fa5760603660031901126100fa576102816103c5565b6024356001600160a01b038116908190036100fa57602090604480359160018060a01b035f541633148015610337575b6102ba906103db565b6102c5831515610416565b5f604051958694859363a9059cbb60e01b85526004850152602484015260018060a01b03165af1801561032c576102f857005b6020813d602011610324575b816103116020938361044d565b810103126100fa5751801515036100fa57005b3d9150610304565b6040513d5f823e3d90fd5b506001546001600160a01b031633146102b1565b346100fa575f3660031901126100fa5761036361046f565b5f80546001600160a01b0319811682556001600160a01b03167f8be0079c531659141344cd1fd0a4f28419497f9722a3daafe3b4186f6b6457e08280a3005b346100fa575f3660031901126100fa576001546001600160a01b03168152602090f35b600435906001600160a01b03821682036100fa57565b156103e257565b60405162461bcd60e51b815260206004820152600c60248201526b1d5b985d5d1a1bdc9a5e995960a21b6044820152606490fd5b1561041d57565b60405162461bcd60e51b81526020600482015260086024820152670616d6f756e743d360c41b6044820152606490fd5b90601f8019910116810190811067ffffffffffffffff82111761021457604052565b5f546001600160a01b0316330361048257565b63118cdaa760e01b5f523360045260245ffdfea26469706673582212208adb6579396df0cb92f4c5e94bbf6a29371639a809e43c5cc917c3af4eb2759b64736f6c634300081c0033","linkReferences":{}},"methodIdentifiers":{"operator()":"570ca735","owner()":"8da5cb5b","payoutNative(address,uint256)":"a6a11ee7","payoutToken(address,address,uint256)":"8524e778","renounceOwnership()":"715018a6","setOperator(address)":"b3ab15fb","transferOwnership(address)":"f2fde38b"},"id":27}